{
  "_format": "hh-sol-artifact-1",
  "contractName": "KAIABridge",
  "sourceName": "contracts/Bridge.sol",
  "abi": [
    {
      "inputs": [],
      "stateMutability": "nonpayable",
      "type": "constructor"
    },
    {
      "inputs": [
        {
          "internalType": "address",
          "name": "target",
          "type": "address"
        }
      ],
      "name": "AddressEmptyCode",
      "type": "error"
    },
    {
      "inputs": [
        {
          "internalType": "address",
          "name": "implementation",
          "type": "address"
        }
      ],
      "name": "ERC1967InvalidImplementation",
      "type": "error"
    },
    {
      "inputs": [],
      "name": "ERC1967NonPayable",
      "type": "error"
    },
    {
      "inputs": [],
      "name": "FailedInnerCall",
      "type": "error"
    },
    {
      "inputs": [],
      "name": "InvalidInitialization",
      "type": "error"
    },
    {
      "inputs": [],
      "name": "NotInitializing",
      "type": "error"
    },
    {
      "inputs": [],
      "name": "ReentrancyGuardReentrantCall",
      "type": "error"
    },
    {
      "inputs": [],
      "name": "UUPSUnauthorizedCallContext",
      "type": "error"
    },
    {
      "inputs": [
        {
          "internalType": "bytes32",
          "name": "slot",
          "type": "bytes32"
        }
      ],
      "name": "UUPSUnsupportedProxiableUUID",
      "type": "error"
    },
    {
      "anonymous": false,
      "inputs": [
        {
          "indexed": true,
          "internalType": "uint256",
          "name": "bridgeBalance",
          "type": "uint256"
        }
      ],
      "name": "BridgeBalanceBurned",
      "type": "event"
    },
    {
      "anonymous": false,
      "inputs": [
        {
          "indexed": true,
          "internalType": "string",
          "name": "msg",
          "type": "string"
        }
      ],
      "name": "BridgePause",
      "type": "event"
    },
    {
      "anonymous": false,
      "inputs": [
        {
          "indexed": true,
          "internalType": "string",
          "name": "msg",
          "type": "string"
        }
      ],
      "name": "BridgeResume",
      "type": "event"
    },
    {
      "anonymous": false,
      "inputs": [
        {
          "indexed": true,
          "internalType": "bool",
          "name": "before",
          "type": "bool"
        },
        {
          "indexed": false,
          "internalType": "bool",
          "name": "now",
          "type": "bool"
        }
      ],
      "name": "ChangeAddrValidation",
      "type": "event"
    },
    {
      "anonymous": false,
      "inputs": [
        {
          "indexed": true,
          "internalType": "uint256",
          "name": "bridgeServicePeriod",
          "type": "uint256"
        },
        {
          "indexed": true,
          "internalType": "uint256",
          "name": "newPeriod",
          "type": "uint256"
        }
      ],
      "name": "ChangeBridgeServicePeriod",
      "type": "event"
    },
    {
      "anonymous": false,
      "inputs": [
        {
          "indexed": true,
          "internalType": "address",
          "name": "beforeGuardian",
          "type": "address"
        },
        {
          "indexed": true,
          "internalType": "address",
          "name": "newGuardian",
          "type": "address"
        }
      ],
      "name": "ChangeGuardian",
      "type": "event"
    },
    {
      "anonymous": false,
      "inputs": [
        {
          "indexed": true,
          "internalType": "address",
          "name": "beforeJudge",
          "type": "address"
        },
        {
          "indexed": true,
          "internalType": "address",
          "name": "newJudge",
          "type": "address"
        }
      ],
      "name": "ChangeJudge",
      "type": "event"
    },
    {
      "anonymous": false,
      "inputs": [
        {
          "indexed": true,
          "internalType": "address",
          "name": "beforeOperator",
          "type": "address"
        },
        {
          "indexed": true,
          "internalType": "address",
          "name": "newOperator",
          "type": "address"
        }
      ],
      "name": "ChangeOperator",
      "type": "event"
    },
    {
      "anonymous": false,
      "inputs": [
        {
          "indexed": true,
          "internalType": "uint256",
          "name": "time",
          "type": "uint256"
        }
      ],
      "name": "ChangeTransferTimeLock",
      "type": "event"
    },
    {
      "anonymous": false,
      "inputs": [
        {
          "components": [
            {
              "internalType": "uint64",
              "name": "seq",
              "type": "uint64"
            },
            {
              "internalType": "string",
              "name": "sender",
              "type": "string"
            },
            {
              "internalType": "address",
              "name": "receiver",
              "type": "address"
            },
            {
              "internalType": "uint256",
              "name": "amount",
              "type": "uint256"
            }
          ],
          "indexed": false,
          "internalType": "struct IBridge.ProvisionData",
          "name": "provision",
          "type": "tuple"
        }
      ],
      "name": "Claim",
      "type": "event"
    },
    {
      "anonymous": false,
      "inputs": [
        {
          "indexed": true,
          "internalType": "uint256",
          "name": "seq",
          "type": "uint256"
        },
        {
          "indexed": true,
          "internalType": "uint256",
          "name": "time",
          "type": "uint256"
        }
      ],
      "name": "HoldClaim",
      "type": "event"
    },
    {
      "anonymous": false,
      "inputs": [
        {
          "indexed": false,
          "internalType": "uint64",
          "name": "version",
          "type": "uint64"
        }
      ],
      "name": "Initialized",
      "type": "event"
    },
    {
      "anonymous": false,
      "inputs": [
        {
          "indexed": false,
          "internalType": "address",
          "name": "sender",
          "type": "address"
        },
        {
          "indexed": false,
          "internalType": "uint256",
          "name": "amount",
          "type": "uint256"
        }
      ],
      "name": "KAIACharged",
      "type": "event"
    },
    {
      "anonymous": false,
      "inputs": [
        {
          "indexed": true,
          "internalType": "uint256",
          "name": "beforeMaxLock",
          "type": "uint256"
        },
        {
          "indexed": true,
          "internalType": "uint256",
          "name": "newMaxLock",
          "type": "uint256"
        }
      ],
      "name": "MaxLockableKAIAChange",
      "type": "event"
    },
    {
      "anonymous": false,
      "inputs": [
        {
          "indexed": true,
          "internalType": "uint256",
          "name": "maxTryTransfer",
          "type": "uint256"
        },
        {
          "indexed": true,
          "internalType": "uint256",
          "name": "newMaxTryTransfer",
          "type": "uint256"
        }
      ],
      "name": "MaxTryTransferChange",
      "type": "event"
    },
    {
      "anonymous": false,
      "inputs": [
        {
          "indexed": true,
          "internalType": "uint256",
          "name": "beforeMinLock",
          "type": "uint256"
        },
        {
          "indexed": true,
          "internalType": "uint256",
          "name": "newMinLock",
          "type": "uint256"
        }
      ],
      "name": "MinLockableKAIAChange",
      "type": "event"
    },
    {
      "anonymous": false,
      "inputs": [
        {
          "components": [
            {
              "internalType": "uint64",
              "name": "seq",
              "type": "uint64"
            },
            {
              "internalType": "string",
              "name": "sender",
              "type": "string"
            },
            {
              "internalType": "address",
              "name": "receiver",
              "type": "address"
            },
            {
              "internalType": "uint256",
              "name": "amount",
              "type": "uint256"
            },
            {
              "internalType": "uint64",
              "name": "txID",
              "type": "uint64"
            },
            {
              "internalType": "address",
              "name": "operator",
              "type": "address"
            }
          ],
          "indexed": false,
          "internalType": "struct IBridge.ProvisionIndividualEvent",
          "name": "provision",
          "type": "tuple"
        }
      ],
      "name": "Provision",
      "type": "event"
    },
    {
      "anonymous": false,
      "inputs": [
        {
          "components": [
            {
              "internalType": "uint64",
              "name": "seq",
              "type": "uint64"
            },
            {
              "internalType": "string",
              "name": "sender",
              "type": "string"
            },
            {
              "internalType": "address",
              "name": "receiver",
              "type": "address"
            },
            {
              "internalType": "uint256",
              "name": "amount",
              "type": "uint256"
            }
          ],
          "indexed": false,
          "internalType": "struct IBridge.ProvisionConfirmedEvent",
          "name": "provision",
          "type": "tuple"
        }
      ],
      "name": "ProvisionConfirm",
      "type": "event"
    },
    {
      "anonymous": false,
      "inputs": [
        {
          "indexed": true,
          "internalType": "address",
          "name": "beforeReceiver",
          "type": "address"
        },
        {
          "indexed": true,
          "internalType": "address",
          "name": "newReceiver",
          "type": "address"
        }
      ],
      "name": "ProvisionReceiverChanged",
      "type": "event"
    },
    {
      "anonymous": false,
      "inputs": [
        {
          "indexed": true,
          "internalType": "uint256",
          "name": "seq",
          "type": "uint256"
        },
        {
          "indexed": true,
          "internalType": "uint256",
          "name": "time",
          "type": "uint256"
        }
      ],
      "name": "ReleaseClaim",
      "type": "event"
    },
    {
      "anonymous": false,
      "inputs": [
        {
          "components": [
            {
              "internalType": "uint64",
              "name": "seq",
              "type": "uint64"
            },
            {
              "internalType": "string",
              "name": "sender",
              "type": "string"
            },
            {
              "internalType": "address",
              "name": "receiver",
              "type": "address"
            },
            {
              "internalType": "uint256",
              "name": "amount",
              "type": "uint256"
            }
          ],
          "indexed": false,
          "internalType": "struct IBridge.ProvisionData",
          "name": "provision",
          "type": "tuple"
        }
      ],
      "name": "RemoveProvision",
      "type": "event"
    },
    {
      "anonymous": false,
      "inputs": [
        {
          "components": [
            {
              "internalType": "uint64",
              "name": "seq",
              "type": "uint64"
            },
            {
              "internalType": "address",
              "name": "sender",
              "type": "address"
            },
            {
              "internalType": "string",
              "name": "receiver",
              "type": "string"
            },
            {
              "internalType": "uint256",
              "name": "amount",
              "type": "uint256"
            }
          ],
          "indexed": false,
          "internalType": "struct IBridge.SwapRequest",
          "name": "lockInfo",
          "type": "tuple"
        }
      ],
      "name": "Transfer",
      "type": "event"
    },
    {
      "anonymous": false,
      "inputs": [
        {
          "indexed": true,
          "internalType": "bool",
          "name": "transferFromKaiaOn",
          "type": "bool"
        },
        {
          "indexed": true,
          "internalType": "bool",
          "name": "set",
          "type": "bool"
        }
      ],
      "name": "TransferFromKaiaOnOffChanged",
      "type": "event"
    },
    {
      "anonymous": false,
      "inputs": [
        {
          "indexed": true,
          "internalType": "address",
          "name": "implementation",
          "type": "address"
        }
      ],
      "name": "Upgraded",
      "type": "event"
    },
    {
      "inputs": [],
      "name": "KAIA_UNIT",
      "outputs": [
        {
          "internalType": "uint256",
          "name": "",
          "type": "uint256"
        }
      ],
      "stateMutability": "view",
      "type": "function"
    },
    {
      "inputs": [],
      "name": "TRANSFERLOCK",
      "outputs": [
        {
          "internalType": "uint256",
          "name": "",
          "type": "uint256"
        }
      ],
      "stateMutability": "view",
      "type": "function"
    },
    {
      "inputs": [],
      "name": "UPGRADE_INTERFACE_VERSION",
      "outputs": [
        {
          "internalType": "string",
          "name": "",
          "type": "string"
        }
      ],
      "stateMutability": "view",
      "type": "function"
    },
    {
      "inputs": [],
      "name": "accumulatedClaimAmount",
      "outputs": [
        {
          "internalType": "uint256",
          "name": "",
          "type": "uint256"
        }
      ],
      "stateMutability": "view",
      "type": "function"
    },
    {
      "inputs": [],
      "name": "addrValidationOn",
      "outputs": [
        {
          "internalType": "bool",
          "name": "",
          "type": "bool"
        }
      ],
      "stateMutability": "view",
      "type": "function"
    },
    {
      "inputs": [],
      "name": "bridgeServicePeriod",
      "outputs": [
        {
          "internalType": "uint256",
          "name": "",
          "type": "uint256"
        }
      ],
      "stateMutability": "view",
      "type": "function"
    },
    {
      "inputs": [],
      "name": "bridgeServiceStarted",
      "outputs": [
        {
          "internalType": "uint256",
          "name": "",
          "type": "uint256"
        }
      ],
      "stateMutability": "view",
      "type": "function"
    },
    {
      "inputs": [],
      "name": "burnBridgeBalance",
      "outputs": [],
      "stateMutability": "nonpayable",
      "type": "function"
    },
    {
      "inputs": [
        {
          "internalType": "bytes",
          "name": "data",
          "type": "bytes"
        }
      ],
      "name": "bytes2Provision",
      "outputs": [
        {
          "components": [
            {
              "internalType": "uint64",
              "name": "seq",
              "type": "uint64"
            },
            {
              "internalType": "string",
              "name": "sender",
              "type": "string"
            },
            {
              "internalType": "address",
              "name": "receiver",
              "type": "address"
            },
            {
              "internalType": "uint256",
              "name": "amount",
              "type": "uint256"
            }
          ],
          "internalType": "struct IBridge.ProvisionData",
          "name": "",
          "type": "tuple"
        }
      ],
      "stateMutability": "pure",
      "type": "function"
    },
    {
      "inputs": [
        {
          "internalType": "bytes",
          "name": "strBytes",
          "type": "bytes"
        }
      ],
      "name": "bytesToLowerString",
      "outputs": [
        {
          "internalType": "bytes",
          "name": "",
          "type": "bytes"
        }
      ],
      "stateMutability": "pure",
      "type": "function"
    },
    {
      "inputs": [
        {
          "internalType": "uint256",
          "name": "newPeriod",
          "type": "uint256"
        }
      ],
      "name": "changeBridgeServicePeriod",
      "outputs": [],
      "stateMutability": "nonpayable",
      "type": "function"
    },
    {
      "inputs": [
        {
          "internalType": "address",
          "name": "newGuardian",
          "type": "address"
        }
      ],
      "name": "changeGuardian",
      "outputs": [],
      "stateMutability": "nonpayable",
      "type": "function"
    },
    {
      "inputs": [
        {
          "internalType": "address",
          "name": "newJudge",
          "type": "address"
        }
      ],
      "name": "changeJudge",
      "outputs": [],
      "stateMutability": "nonpayable",
      "type": "function"
    },
    {
      "inputs": [
        {
          "internalType": "uint256",
          "name": "newMaxLockableKAIA",
          "type": "uint256"
        }
      ],
      "name": "changeMaxLockableKAIA",
      "outputs": [],
      "stateMutability": "nonpayable",
      "type": "function"
    },
    {
      "inputs": [
        {
          "internalType": "uint256",
          "name": "newMaxTryTransfer",
          "type": "uint256"
        }
      ],
      "name": "changeMaxTryTransfer",
      "outputs": [],
      "stateMutability": "nonpayable",
      "type": "function"
    },
    {
      "inputs": [
        {
          "internalType": "uint256",
          "name": "newMinLockableKAIA",
          "type": "uint256"
        }
      ],
      "name": "changeMinLockableKAIA",
      "outputs": [],
      "stateMutability": "nonpayable",
      "type": "function"
    },
    {
      "inputs": [
        {
          "internalType": "address",
          "name": "newOperator",
          "type": "address"
        }
      ],
      "name": "changeOperator",
      "outputs": [],
      "stateMutability": "nonpayable",
      "type": "function"
    },
    {
      "inputs": [
        {
          "internalType": "bool",
          "name": "set",
          "type": "bool"
        }
      ],
      "name": "changeTransferEnable",
      "outputs": [],
      "stateMutability": "nonpayable",
      "type": "function"
    },
    {
      "inputs": [
        {
          "internalType": "uint256",
          "name": "duration",
          "type": "uint256"
        }
      ],
      "name": "changeTransferTimeLock",
      "outputs": [],
      "stateMutability": "nonpayable",
      "type": "function"
    },
    {
      "inputs": [
        {
          "internalType": "uint64",
          "name": "",
          "type": "uint64"
        }
      ],
      "name": "claimed",
      "outputs": [
        {
          "internalType": "bool",
          "name": "",
          "type": "bool"
        }
      ],
      "stateMutability": "view",
      "type": "function"
    },
    {
      "inputs": [
        {
          "internalType": "bytes",
          "name": "src",
          "type": "bytes"
        },
        {
          "internalType": "uint256",
          "name": "from",
          "type": "uint256"
        },
        {
          "internalType": "uint256",
          "name": "to",
          "type": "uint256"
        }
      ],
      "name": "copyBytes",
      "outputs": [
        {
          "internalType": "bytes",
          "name": "",
          "type": "bytes"
        }
      ],
      "stateMutability": "pure",
      "type": "function"
    },
    {
      "inputs": [
        {
          "internalType": "bytes",
          "name": "_bech",
          "type": "bytes"
        },
        {
          "internalType": "bool",
          "name": "useNormalize",
          "type": "bool"
        }
      ],
      "name": "decodeNoLimit",
      "outputs": [
        {
          "internalType": "string",
          "name": "",
          "type": "string"
        },
        {
          "internalType": "bytes",
          "name": "",
          "type": "bytes"
        }
      ],
      "stateMutability": "pure",
      "type": "function"
    },
    {
      "inputs": [
        {
          "internalType": "bytes",
          "name": "bech",
          "type": "bytes"
        }
      ],
      "name": "decodeUnsafe",
      "outputs": [
        {
          "internalType": "string",
          "name": "",
          "type": "string"
        },
        {
          "internalType": "bytes",
          "name": "",
          "type": "bytes"
        },
        {
          "internalType": "bytes",
          "name": "",
          "type": "bytes"
        }
      ],
      "stateMutability": "pure",
      "type": "function"
    },
    {
      "inputs": [
        {
          "internalType": "bytes1",
          "name": "b",
          "type": "bytes1"
        }
      ],
      "name": "findIndexByte",
      "outputs": [
        {
          "internalType": "uint256",
          "name": "",
          "type": "uint256"
        }
      ],
      "stateMutability": "pure",
      "type": "function"
    },
    {
      "inputs": [
        {
          "internalType": "bytes",
          "name": "strBytes",
          "type": "bytes"
        },
        {
          "internalType": "bytes1",
          "name": "b",
          "type": "bytes1"
        }
      ],
      "name": "findLastIndexByte",
      "outputs": [
        {
          "internalType": "int256",
          "name": "",
          "type": "int256"
        }
      ],
      "stateMutability": "pure",
      "type": "function"
    },
    {
      "inputs": [],
      "name": "getAllSwapRequests",
      "outputs": [
        {
          "components": [
            {
              "internalType": "uint64",
              "name": "seq",
              "type": "uint64"
            },
            {
              "internalType": "address",
              "name": "sender",
              "type": "address"
            },
            {
              "internalType": "string",
              "name": "receiver",
              "type": "string"
            },
            {
              "internalType": "uint256",
              "name": "amount",
              "type": "uint256"
            }
          ],
          "internalType": "struct IBridge.SwapRequest[]",
          "name": "",
          "type": "tuple[]"
        }
      ],
      "stateMutability": "view",
      "type": "function"
    },
    {
      "inputs": [],
      "name": "getClaimCandidates",
      "outputs": [
        {
          "internalType": "uint64[]",
          "name": "",
          "type": "uint64[]"
        }
      ],
      "stateMutability": "view",
      "type": "function"
    },
    {
      "inputs": [
        {
          "internalType": "uint64",
          "name": "range",
          "type": "uint64"
        }
      ],
      "name": "getClaimCandidatesRange",
      "outputs": [
        {
          "internalType": "uint64[]",
          "name": "",
          "type": "uint64[]"
        }
      ],
      "stateMutability": "view",
      "type": "function"
    },
    {
      "inputs": [
        {
          "internalType": "uint64",
          "name": "range",
          "type": "uint64"
        }
      ],
      "name": "getClaimCandidatesRangePure",
      "outputs": [
        {
          "internalType": "uint64[]",
          "name": "",
          "type": "uint64[]"
        }
      ],
      "stateMutability": "view",
      "type": "function"
    },
    {
      "inputs": [],
      "name": "getClaimCandidatesSize",
      "outputs": [
        {
          "internalType": "uint256",
          "name": "",
          "type": "uint256"
        }
      ],
      "stateMutability": "view",
      "type": "function"
    },
    {
      "inputs": [],
      "name": "getClaimFailures",
      "outputs": [
        {
          "internalType": "uint64[]",
          "name": "",
          "type": "uint64[]"
        }
      ],
      "stateMutability": "view",
      "type": "function"
    },
    {
      "inputs": [
        {
          "internalType": "uint64",
          "name": "range",
          "type": "uint64"
        }
      ],
      "name": "getClaimFailuresRange",
      "outputs": [
        {
          "internalType": "uint64[]",
          "name": "",
          "type": "uint64[]"
        }
      ],
      "stateMutability": "view",
      "type": "function"
    },
    {
      "inputs": [
        {
          "internalType": "uint256",
          "name": "from",
          "type": "uint256"
        },
        {
          "internalType": "uint256",
          "name": "to",
          "type": "uint256"
        }
      ],
      "name": "getSwapRequests",
      "outputs": [
        {
          "components": [
            {
              "internalType": "uint64",
              "name": "seq",
              "type": "uint64"
            },
            {
              "internalType": "address",
              "name": "sender",
              "type": "address"
            },
            {
              "internalType": "string",
              "name": "receiver",
              "type": "string"
            },
            {
              "internalType": "uint256",
              "name": "amount",
              "type": "uint256"
            }
          ],
          "internalType": "struct IBridge.SwapRequest[]",
          "name": "",
          "type": "tuple[]"
        }
      ],
      "stateMutability": "view",
      "type": "function"
    },
    {
      "inputs": [],
      "name": "getVersion",
      "outputs": [
        {
          "internalType": "string",
          "name": "",
          "type": "string"
        }
      ],
      "stateMutability": "pure",
      "type": "function"
    },
    {
      "inputs": [],
      "name": "greatestConfirmedSeq",
      "outputs": [
        {
          "internalType": "uint256",
          "name": "",
          "type": "uint256"
        }
      ],
      "stateMutability": "view",
      "type": "function"
    },
    {
      "inputs": [],
      "name": "guardian",
      "outputs": [
        {
          "internalType": "address",
          "name": "",
          "type": "address"
        }
      ],
      "stateMutability": "view",
      "type": "function"
    },
    {
      "inputs": [
        {
          "internalType": "uint256",
          "name": "seq",
          "type": "uint256"
        }
      ],
      "name": "holdClaim",
      "outputs": [],
      "stateMutability": "nonpayable",
      "type": "function"
    },
    {
      "inputs": [
        {
          "internalType": "address",
          "name": "initOperator",
          "type": "address"
        },
        {
          "internalType": "address",
          "name": "initGuardian",
          "type": "address"
        },
        {
          "internalType": "address",
          "name": "initJudge",
          "type": "address"
        },
        {
          "internalType": "uint256",
          "name": "newMaxTryTransfer",
          "type": "uint256"
        }
      ],
      "name": "initialize",
      "outputs": [],
      "stateMutability": "nonpayable",
      "type": "function"
    },
    {
      "inputs": [
        {
          "internalType": "uint256",
          "name": "seq",
          "type": "uint256"
        }
      ],
      "name": "isPassedTimeLockDuration",
      "outputs": [
        {
          "internalType": "bool",
          "name": "",
          "type": "bool"
        }
      ],
      "stateMutability": "view",
      "type": "function"
    },
    {
      "inputs": [
        {
          "internalType": "uint64",
          "name": "seq",
          "type": "uint64"
        }
      ],
      "name": "isProvisioned",
      "outputs": [
        {
          "internalType": "bool",
          "name": "",
          "type": "bool"
        }
      ],
      "stateMutability": "view",
      "type": "function"
    },
    {
      "inputs": [
        {
          "internalType": "uint64",
          "name": "from",
          "type": "uint64"
        },
        {
          "internalType": "uint64",
          "name": "to",
          "type": "uint64"
        }
      ],
      "name": "isProvisionedRange",
      "outputs": [
        {
          "internalType": "uint64[]",
          "name": "",
          "type": "uint64[]"
        }
      ],
      "stateMutability": "view",
      "type": "function"
    },
    {
      "inputs": [],
      "name": "judge",
      "outputs": [
        {
          "internalType": "address",
          "name": "",
          "type": "address"
        }
      ],
      "stateMutability": "view",
      "type": "function"
    },
    {
      "inputs": [
        {
          "internalType": "uint256",
          "name": "",
          "type": "uint256"
        }
      ],
      "name": "locked",
      "outputs": [
        {
          "internalType": "uint64",
          "name": "seq",
          "type": "uint64"
        },
        {
          "internalType": "address",
          "name": "sender",
          "type": "address"
        },
        {
          "internalType": "string",
          "name": "receiver",
          "type": "string"
        },
        {
          "internalType": "uint256",
          "name": "amount",
          "type": "uint256"
        }
      ],
      "stateMutability": "view",
      "type": "function"
    },
    {
      "inputs": [],
      "name": "maxLockableKAIA",
      "outputs": [
        {
          "internalType": "uint256",
          "name": "",
          "type": "uint256"
        }
      ],
      "stateMutability": "view",
      "type": "function"
    },
    {
      "inputs": [],
      "name": "maxTryTransfer",
      "outputs": [
        {
          "internalType": "uint256",
          "name": "",
          "type": "uint256"
        }
      ],
      "stateMutability": "view",
      "type": "function"
    },
    {
      "inputs": [],
      "name": "minLockableKAIA",
      "outputs": [
        {
          "internalType": "uint256",
          "name": "",
          "type": "uint256"
        }
      ],
      "stateMutability": "view",
      "type": "function"
    },
    {
      "inputs": [],
      "name": "nClaimed",
      "outputs": [
        {
          "internalType": "uint256",
          "name": "",
          "type": "uint256"
        }
      ],
      "stateMutability": "view",
      "type": "function"
    },
    {
      "inputs": [],
      "name": "nProvisioned",
      "outputs": [
        {
          "internalType": "uint256",
          "name": "",
          "type": "uint256"
        }
      ],
      "stateMutability": "view",
      "type": "function"
    },
    {
      "inputs": [],
      "name": "nTransferHolds",
      "outputs": [
        {
          "internalType": "uint256",
          "name": "",
          "type": "uint256"
        }
      ],
      "stateMutability": "view",
      "type": "function"
    },
    {
      "inputs": [],
      "name": "nextProvisionSeq",
      "outputs": [
        {
          "internalType": "uint64",
          "name": "",
          "type": "uint64"
        }
      ],
      "stateMutability": "view",
      "type": "function"
    },
    {
      "inputs": [
        {
          "internalType": "bytes",
          "name": "bech",
          "type": "bytes"
        }
      ],
      "name": "normalize",
      "outputs": [
        {
          "internalType": "bytes",
          "name": "",
          "type": "bytes"
        }
      ],
      "stateMutability": "pure",
      "type": "function"
    },
    {
      "inputs": [],
      "name": "operator",
      "outputs": [
        {
          "internalType": "address",
          "name": "",
          "type": "address"
        }
      ],
      "stateMutability": "view",
      "type": "function"
    },
    {
      "inputs": [],
      "name": "pause",
      "outputs": [
        {
          "internalType": "bool",
          "name": "",
          "type": "bool"
        }
      ],
      "stateMutability": "view",
      "type": "function"
    },
    {
      "inputs": [
        {
          "internalType": "string",
          "name": "pauseMsg",
          "type": "string"
        }
      ],
      "name": "pauseBridge",
      "outputs": [],
      "stateMutability": "nonpayable",
      "type": "function"
    },
    {
      "inputs": [
        {
          "components": [
            {
              "internalType": "uint64",
              "name": "seq",
              "type": "uint64"
            },
            {
              "internalType": "string",
              "name": "sender",
              "type": "string"
            },
            {
              "internalType": "address",
              "name": "receiver",
              "type": "address"
            },
            {
              "internalType": "uint256",
              "name": "amount",
              "type": "uint256"
            }
          ],
          "internalType": "struct IBridge.ProvisionData",
          "name": "prov",
          "type": "tuple"
        }
      ],
      "name": "provision",
      "outputs": [],
      "stateMutability": "nonpayable",
      "type": "function"
    },
    {
      "inputs": [
        {
          "internalType": "uint64",
          "name": "",
          "type": "uint64"
        }
      ],
      "name": "provisions",
      "outputs": [
        {
          "internalType": "uint64",
          "name": "seq",
          "type": "uint64"
        },
        {
          "internalType": "string",
          "name": "sender",
          "type": "string"
        },
        {
          "internalType": "address",
          "name": "receiver",
          "type": "address"
        },
        {
          "internalType": "uint256",
          "name": "amount",
          "type": "uint256"
        }
      ],
      "stateMutability": "view",
      "type": "function"
    },
    {
      "inputs": [],
      "name": "proxiableUUID",
      "outputs": [
        {
          "internalType": "bytes32",
          "name": "",
          "type": "bytes32"
        }
      ],
      "stateMutability": "view",
      "type": "function"
    },
    {
      "inputs": [
        {
          "internalType": "uint256",
          "name": "seq",
          "type": "uint256"
        }
      ],
      "name": "releaseClaim",
      "outputs": [],
      "stateMutability": "nonpayable",
      "type": "function"
    },
    {
      "inputs": [
        {
          "internalType": "uint64",
          "name": "seq",
          "type": "uint64"
        }
      ],
      "name": "removeProvision",
      "outputs": [],
      "stateMutability": "nonpayable",
      "type": "function"
    },
    {
      "inputs": [
        {
          "internalType": "uint64",
          "name": "range",
          "type": "uint64"
        }
      ],
      "name": "requestBatchClaim",
      "outputs": [],
      "stateMutability": "nonpayable",
      "type": "function"
    },
    {
      "inputs": [
        {
          "internalType": "uint64",
          "name": "seq",
          "type": "uint64"
        }
      ],
      "name": "requestClaim",
      "outputs": [
        {
          "internalType": "bool",
          "name": "",
          "type": "bool"
        }
      ],
      "stateMutability": "nonpayable",
      "type": "function"
    },
    {
      "inputs": [
        {
          "internalType": "uint64",
          "name": "seq",
          "type": "uint64"
        },
        {
          "internalType": "address",
          "name": "newReceiver",
          "type": "address"
        }
      ],
      "name": "resolveUnclaimable",
      "outputs": [],
      "stateMutability": "nonpayable",
      "type": "function"
    },
    {
      "inputs": [
        {
          "internalType": "string",
          "name": "resumeMsg",
          "type": "string"
        }
      ],
      "name": "resumeBridge",
      "outputs": [],
      "stateMutability": "nonpayable",
      "type": "function"
    },
    {
      "inputs": [],
      "name": "seq",
      "outputs": [
        {
          "internalType": "uint64",
          "name": "",
          "type": "uint64"
        }
      ],
      "stateMutability": "view",
      "type": "function"
    },
    {
      "inputs": [
        {
          "internalType": "uint64",
          "name": "",
          "type": "uint64"
        }
      ],
      "name": "seq2BlockNum",
      "outputs": [
        {
          "internalType": "uint256",
          "name": "",
          "type": "uint256"
        }
      ],
      "stateMutability": "view",
      "type": "function"
    },
    {
      "inputs": [
        {
          "internalType": "bool",
          "name": "onOff",
          "type": "bool"
        }
      ],
      "name": "setAddrValidation",
      "outputs": [],
      "stateMutability": "nonpayable",
      "type": "function"
    },
    {
      "inputs": [
        {
          "internalType": "bytes4",
          "name": "interfaceId",
          "type": "bytes4"
        }
      ],
      "name": "supportsInterface",
      "outputs": [
        {
          "internalType": "bool",
          "name": "",
          "type": "bool"
        }
      ],
      "stateMutability": "pure",
      "type": "function"
    },
    {
      "inputs": [
        {
          "internalType": "uint256",
          "name": "",
          "type": "uint256"
        }
      ],
      "name": "timelocks",
      "outputs": [
        {
          "internalType": "uint256",
          "name": "",
          "type": "uint256"
        }
      ],
      "stateMutability": "view",
      "type": "function"
    },
    {
      "inputs": [
        {
          "internalType": "string",
          "name": "receiver",
          "type": "string"
        }
      ],
      "name": "transfer",
      "outputs": [],
      "stateMutability": "payable",
      "type": "function"
    },
    {
      "inputs": [
        {
          "internalType": "uint256",
          "name": "",
          "type": "uint256"
        }
      ],
      "name": "transferFail",
      "outputs": [
        {
          "internalType": "uint256",
          "name": "",
          "type": "uint256"
        }
      ],
      "stateMutability": "view",
      "type": "function"
    },
    {
      "inputs": [],
      "name": "transferFromKaiaOn",
      "outputs": [
        {
          "internalType": "bool",
          "name": "",
          "type": "bool"
        }
      ],
      "stateMutability": "view",
      "type": "function"
    },
    {
      "inputs": [
        {
          "internalType": "address",
          "name": "newImplementation",
          "type": "address"
        },
        {
          "internalType": "bytes",
          "name": "data",
          "type": "bytes"
        }
      ],
      "name": "upgradeToAndCall",
      "outputs": [],
      "stateMutability": "payable",
      "type": "function"
    },
    {
      "inputs": [
        {
          "internalType": "string",
          "name": "addr",
          "type": "string"
        },
        {
          "internalType": "bool",
          "name": "useNormalize",
          "type": "bool"
        }
      ],
      "name": "verifyAddrFNSA",
      "outputs": [
        {
          "internalType": "bool",
          "name": "",
          "type": "bool"
        }
      ],
      "stateMutability": "pure",
      "type": "function"
    },
    {
      "inputs": [
        {
          "internalType": "string",
          "name": "hrp",
          "type": "string"
        },
        {
          "internalType": "bytes",
          "name": "values",
          "type": "bytes"
        },
        {
          "internalType": "bytes",
          "name": "checksum",
          "type": "bytes"
        }
      ],
      "name": "verifyChecksum",
      "outputs": [
        {
          "internalType": "bool",
          "name": "",
          "type": "bool"
        }
      ],
      "stateMutability": "pure",
      "type": "function"
    },
    {
      "inputs": [
        {
          "internalType": "string",
          "name": "hrp",
          "type": "string"
        },
        {
          "internalType": "bytes",
          "name": "data",
          "type": "bytes"
        }
      ],
      "name": "writeBech32Checksum",
      "outputs": [
        {
          "internalType": "bytes",
          "name": "",
          "type": "bytes"
        }
      ],
      "stateMutability": "pure",
      "type": "function"
    },
    {
      "stateMutability": "payable",
      "type": "receive"
    }
  ],
  "bytecode": "0x60a0604052346200004257306080526200001862000047565b6200002262000047565b604051615cc59081620000e782396080518181816116c501526118920152f35b600080fd5b7ff0c57e16840df040f15088dc2f81fe391c3923bec73e23a9662efc9c229c6a00805460ff8160401c16620000d4576001600160401b036002600160401b0319828216016200009557505050565b6001600160401b031990911681179091556040519081527fc7f505b2f371ae2175ee4913f4499e1f2633a7b5936321eed1cdaeb6115181d290602090a1565b60405163f92ee8a960e01b8152600490fdfe60806040526004361015610023575b361561001957600080fd5b610021614d06565b005b60003560e01c806301ffc9a7146104d357806306394c9b146104ce578063084419b1146104c957806309e19a26146104c45780630b6b5bfa146104bf5780630d7e149f146104ba5780630d8e6e2c146104b557806313f4bab9146104b0578063177a1555146104ab5780631919b0c8146104a657806319ab4e3a146104a1578063206eb3841461049c5780632a10e777146104975780632cc55926146104925780632ce434e91461048d5780632dee1734146104885780632fcb4f0414610483578063393908741461047e5780633b0d01e8146104795780633d1153e0146104745780633e72c67c1461046f578063430b239f1461046a5780634481861714610465578063452a9320146104605780634ccc33bb1461045b5780634f1ef2861461045657806352d1902d14610451578063539135dd1461044c578063570ca73514610447578063573255f41461044257806357fc42b11461043d5780635e5b60db146104385780635efac2ec1461043357806361a5a8711461042e5780636857ab4014610429578063700c69b414610424578063700fc4f71461041f578063704392d71461041a578063714a9a75146104155780637202be13146104105780637276952e1461040b57806373297448146104065780637a51dd5b146104015780637d1e6656146103fc57806382d90251146103f75780638456cb59146103f257806387d55377146103ed5780638c5197ce146103e85780639369ccd7146103e35780639e8da543146103de578063a0258d0b146103d9578063a2a82991146103d4578063a34c853d146103cf578063a8bde4eb146103ca578063ad3cb1cc146103c5578063b45a3c0e146103c0578063bdaa26d5146103bb578063cbbde105146103b6578063ce39fe20146103b1578063cefcab8a146103ac578063cf756fdf146103a7578063d67806b8146103a2578063d75bf5061461039d578063d8beba8314610398578063dafa2f8d14610393578063e0caf5781461038e578063e9133f3b14610389578063e9a24feb14610384578063ea3776de1461037f578063ea8ebb141461037a578063eba24d1f14610375578063ed0d38f614610370578063fa2f49b41461036b578063fc0d4506146103665763fe87b1620361000e57612ef6565b612ed8565b612eba565b612e76565b612dd3565b612db5565b612d47565b612d2e565b612d03565b612c77565b612bfb565b612bdd565b612b68565b612b45565b612935565b6127e0565b61274f565b6126f7565b61268d565b6125ff565b612537565b6124bc565b61243e565b612420565b612221565b6121dd565b6120f3565b612057565b612039565b612016565b611fbe565b611fa0565b611f22565b611eff565b611ea7565b611e89565b611e6b565b611def565b611d76565b611c7f565b611b8e565b611b36565b611b18565b611ac0565b611a11565b6119ea565b6119c0565b611956565b611877565b611681565b611610565b6115e9565b6114f9565b6114b1565b611455565b6112bc565b611270565b611244565b6111bd565b610f88565b610e9f565b610e6b565b610d91565b610c53565b610c35565b6109cc565b610911565b6108f3565b610895565b610869565b610846565b61080a565b610615565b610554565b3461053e57602060031936011261053e576004357fffffffff00000000000000000000000000000000000000000000000000000000811680910361053e576020907f8f40ddd80000000000000000000000000000000000000000000000000000000060405191148152f35b600080fd5b6001600160a01b0381160361053e57565b3461053e57602060031936011261053e5761002160043561057481610543565b6001600160a01b0361058b81600354163314612f14565b8060025460081c16908216907f43ecbc1bb0a9bebbcadca5bdaedc649040adb65597772899e25403afb28b6794600080a37fffffffffffffffffffffff0000000000000000000000000000000000000000ff74ffffffffffffffffffffffffffffffffffffffff006002549260081b16911617600255565b67ffffffffffffffff81160361053e57565b3461053e57602060031936011261053e5767ffffffffffffffff60043561063b81610603565b1660005260166020526020604060002054604051908152f35b7f4e487b7100000000000000000000000000000000000000000000000000000000600052604160045260246000fd5b67ffffffffffffffff811161069757604052565b610654565b6080810190811067ffffffffffffffff82111761069757604052565b6040810190811067ffffffffffffffff82111761069757604052565b90601f601f19910116810190811067ffffffffffffffff82111761069757604052565b604051906107048261069c565b565b6040519060a0820182811067ffffffffffffffff82111761069757604052565b67ffffffffffffffff811161069757601f01601f191660200190565b92919261074e82610726565b9161075c60405193846106d4565b82948184528183011161053e578281602093846000960137010152565b9080601f8301121561053e5781602061079493359101610742565b90565b602060031982011261053e576004359067ffffffffffffffff821161053e5761079491600401610779565b60005b8381106107d55750506000910152565b81810151838201526020016107c5565b90601f19601f602093610803815180928187528780880191016107c2565b0116010190565b3461053e5761083761082361081e36610797565b612faf565b6040519182916020835260208301906107e5565b0390f35b600091031261053e57565b3461053e57600060031936011261053e576020604051678ac7230489e800008152f35b3461053e57602060031936011261053e5760043560005260106020526020604060002054604051908152f35b3461053e57600060031936011261053e576108376040516108b5816106b8565b600581527f302e302e3100000000000000000000000000000000000000000000000000000060208201526040519182916020835260208301906107e5565b3461053e57600060031936011261053e576020600e54604051908152f35b3461053e57602060031936011261053e576004356001600160a01b036004541633036109885761094081614d37565b600e5490600182018092116109835767ffffffffffffffff91600e557f06dfd90492bb157da142b740963e167c0d4b56c79c1449a0c70f63d8ac8bb574600080a3005b612f80565b606460405162461bcd60e51b815260206004820152601a60248201527f4b4149413a3a4272696467653a204e6f7420616e206a756467650000000000006044820152fd5b3461053e5760031960208136011261053e5760043567ffffffffffffffff9182821161053e5760808260040191833603011261053e576001600160a01b0360025460081c163303610bf157610b4360647feaafa88e429e778603ec9aff8a1834097dc88ea1d628bb01dc4e24a2738fc61293610afe610b5694610a5460ff60115416156130c0565b610af3610a6082613130565b98610a94610a8f610a8b8c67ffffffffffffffff809116600052601360205260406000205416151590565b1590565b61313a565b610abb83610ab68c67ffffffffffffffff166000526013602052604060002090565b613291565b610ace610ac9600654613094565b600655565b8916610ad981614d75565b610ae28a614d86565b610aee600d5482614d5a565b6158b8565b5060248301906131da565b9390610b2e610b0f60448501613287565b91610b186106f7565b67ffffffffffffffff8b168152965b3691610742565b60208601526001600160a01b03166040850152565b01356060820152604051918291826120a7565b0390a1610b81610b75610b756002546001600160a01b039060081c1690565b6001600160a01b031690565b803b1561053e576040517f8a8f09a500000000000000000000000000000000000000000000000000000000815267ffffffffffffffff83166004820152906000908290602490829084905af18015610bec57610bd957005b80610be661002192610683565b8061083b565b613417565b606460405162461bcd60e51b815260206004820152601d60248201527f4b4149413a3a4272696467653a204e6f7420616e206f70657261746f720000006044820152fd5b3461053e57600060031936011261053e576020600854604051908152f35b3461053e57602060031936011261053e57600435610c7d6001600160a01b03600354163314612f14565b80600d557f4dc47f4cf5973a6141e21dcf6b5e81815e47a823fa0d8321c8e857485adc231a600080a2005b90600182811c92168015610cf1575b6020831014610cc257565b7f4e487b7100000000000000000000000000000000000000000000000000000000600052602260045260246000fd5b91607f1691610cb7565b805460009392610d0a82610ca8565b91828252602093600191600181169081600014610d725750600114610d31575b5050505050565b90939495506000929192528360002092846000945b838610610d5e57505050500101903880808080610d2a565b805485870183015294019385908201610d46565b60ff19168685015250505090151560051b010191503880808080610d2a565b3461053e57602060031936011261053e57600435610dae81610603565b67ffffffffffffffff809116600052601360205260406000209081541660405191610de783610de08160018501610cfb565b03846106d4565b60036001600160a01b03600283015416910154610e1660405194859485526080602086015260808501906107e5565b91604084015260608301520390f35b602090602060408183019282815285518094520193019160005b828110610e4d575050505090565b835167ffffffffffffffff1685529381019392810192600101610e3f565b3461053e57602060031936011261053e57610837610e93600435610e8e81610603565b614e04565b60405191829182610e25565b3461053e5760208060031936011261053e576004803591610ebf83610603565b67ffffffffffffffff80931691601990601954808511610f80575b5060009260005b8587821610610eec57005b8685168454811015610f3d57610a8b88610f08610f159361584a565b90549060031b1c16614e8d565b610f28575b610f2390613423565b610ee1565b93610f35610f2391613423565b949050610f1a565b606484846040519162461bcd60e51b8352820152601360248201527f496e646578206f7574206f6620626f756e6473000000000000000000000000006044820152fd5b935038610eda565b3461053e57602060031936011261053e57600435610fa581610603565b610fbb6001600160a01b03600354163314612f14565b610fe7610fe28267ffffffffffffffff809116600052601360205260406000205416151590565b61343c565b61109667ffffffffffffffff821661100a81600052601060205242604060002055565b611018610ac96006546134ad565b611039611034611027856134f6565b67ffffffffffffffff1690565b614d75565b611087611045846134f6565b7fffffffffffffffffffffffffffffffff0000000000000000ffffffffffffffff6fffffffffffffffff0000000000000000600a549260401b16911617600a55565b61109081615a5f565b50615b10565b50600081816110ba819467ffffffffffffffff166000526015602052604060002090565b557f1d1da9bc58e89b30029e7edaca4296b7d464295a50800349a3e3568577b32cd66111096110fd8367ffffffffffffffff166000526013602052604060002090565b6040519182918261352a565b0390a161113261112d8267ffffffffffffffff166000526013602052604060002090565b613576565b61114e610b75610b756002546001600160a01b039060081c1690565b90813b156111b9576040517f7e5d941100000000000000000000000000000000000000000000000000000000815267ffffffffffffffff91909116600482015291908290602490829084905af18015610bec576111a9575080f35b80610be66111b692610683565b80f35b5050fd5b3461053e57602060031936011261053e576004356111da81610543565b7fffffffffffffffffffffffff00000000000000000000000000000000000000006003546001600160a01b0380821693611215338614612f14565b1680937f61f3b62edd586d41117ebcc75bd4eae39389085250e64cf6295fb57bac22c1e7600080a31617600355005b3461053e57602060031936011261053e5760043560005260156020526020604060002054604051908152f35b3461053e57602060031936011261053e5760206112b260043561129281610603565b67ffffffffffffffff809116600052601360205260406000205416151590565b6040519015158152f35b3461053e57604060031936011261053e576004356112d981610603565b611451602435916112e983610543565b61144c6001600160a01b039361130485600354163314612f14565b61132b610fe28467ffffffffffffffff809116600052601360205260406000205416151590565b67ffffffffffffffff83169461138b611386600097808952601460205261136261135d610a8b60408c2060ff90541690565b6135db565b61137361136e82614129565b613672565b6000526018602052604060002054151590565b6136e3565b61139c823b63ffffffff1615613754565b6113d0610b7560026113c28767ffffffffffffffff166000526013602052604060002090565b01546001600160a01b031690565b908216907fa134134b227383c3e6d7eca491d135fe89377ef62d74a6b45cdf320ab6f584ed8780a360026114188467ffffffffffffffff166000526013602052604060002090565b01906001600160a01b03167fffffffffffffffffffffffff0000000000000000000000000000000000000000825416179055565b614f0f565b5080f35b3461053e5761148b61149961083761147461146f36610797565b6137e2565b9193906040519586956060875260608701906107e5565b9085820360208701526107e5565b9083820360408501526107e5565b8015150361053e57565b3461053e57604060031936011261053e5760043567ffffffffffffffff811161053e576112b26114e76020923690600401610779565b602435906114f4826114a7565b6139b4565b3461053e576000806003193601126115e6576115216001600160a01b03600354163314612f14565b61152f60ff601154166139fd565b60015442111561157c5747611555828080808561dead5af161154f613a6e565b50613a9e565b7f971b82dee5940222a2a2c7c1f8387f5ea5d2da6e0c0aa8d42be7f43ad34980928280a280f35b608460405162461bcd60e51b815260206004820152602f60248201527f4b4149413a3a4272696467653a205365727669636520706572696f642069732060448201527f6e6f7420657870697265642079657400000000000000000000000000000000006064820152fd5b80fd5b3461053e57600060031936011261053e5760206001600160a01b0360035416604051908152f35b3461053e57604060031936011261053e5760043567ffffffffffffffff811161053e5761083761165c61164a611673933690600401610779565b60243590611657826114a7565b613b5a565b6040929192519384936040855260408501906107e5565b9083820360208501526107e5565b604060031936011261053e57600480359061169b82610543565b60243567ffffffffffffffff811161053e576116ba9036908301610779565b6001600160a01b03807f000000000000000000000000000000000000000000000000000000000000000016803014908115611849575b5061182057906020826117098594600354163314612f14565b604051938480927f52d1902d00000000000000000000000000000000000000000000000000000000825288165afa600092816117ef575b506117875750506040517f4c9c8ce30000000000000000000000000000000000000000000000000000000081526001600160a01b0390921690820190815281906020010390fd5b83837f360894a13ba1a3210667c828492db98dca3e2076cc3735a920a3ca505d382bbc84036117ba5761002183836156f1565b6040517faa1d49a400000000000000000000000000000000000000000000000000000000815290810184815281906020010390fd5b61181291935060203d602011611819575b61180a81836106d4565b8101906150de565b9138611740565b503d611800565b826040517fe07c8dba000000000000000000000000000000000000000000000000000000008152fd5b9050817f360894a13ba1a3210667c828492db98dca3e2076cc3735a920a3ca505d382bbc54161415386116f0565b3461053e57600060031936011261053e576001600160a01b037f00000000000000000000000000000000000000000000000000000000000000001630036118e25760206040517f360894a13ba1a3210667c828492db98dca3e2076cc3735a920a3ca505d382bbc8152f35b60046040517fe07c8dba000000000000000000000000000000000000000000000000000000008152fd5b90602060031983011261053e5760043567ffffffffffffffff9283821161053e578060238301121561053e57816004013593841161053e576024848301011161053e576024019190565b3461053e576119996119673661190c565b9061197e6001600160a01b03600354163314612f14565b60ff1960115461199060ff82166139fd565b16601155613bc3565b7f4491215d33ff44cbbe5abce58bc65efb225a681d5757be893e336bf1d652d6af600080a2005b3461053e57600060031936011261053e5760206001600160a01b0360025460081c16604051908152f35b3461053e57600060031936011261053e5760206001600160a01b0360045416604051908152f35b3461053e57602060031936011261053e57600435611a2e81610603565b67ffffffffffffffff80911660179060175491828211611ab8575b611a5282614660565b9260009060005b848110611a6e57604051806108378882610e25565b81811015611ab35760019084845287817fc624b66cc0138b8fabc209247f72d758e1cf3343756d543badbf24212bed8c15015416611aac82896140bb565b5201611a59565b612595565b829150611a49565b3461053e57604060031936011261053e5767ffffffffffffffff60043581811161053e57611af2903690600401610779565b9060243590811161053e5761083791611b12610823923690600401610779565b90613c5c565b3461053e57600060031936011261053e576020600954604051908152f35b3461053e57602060031936011261053e57600435611b606001600160a01b03600354163314612f14565b806008547fad8ec639c14eab82be945c7ae5c060174fb853d9cda596a194558f77fc5e3d75600080a3600955005b3461053e57600060031936011261053e57602067ffffffffffffffff600a5416604051908152f35b9067ffffffffffffffff82511681526001600160a01b036020830151166020820152606080611bf460408501516080604086015260808501906107e5565b93015191015290565b6020808201906020835283518092526040830192602060408460051b8301019501936000915b848310611c335750505050505090565b9091929394958480611c6f837fffffffffffffffffffffffffffffffffffffffffffffffffffffffffffffffc086600196030187528a51611bb6565b9801930193019194939290611c23565b3461053e57604060031936011261053e5760043560243581811115611d0c57601254808211611d04575b50611cbc611cb783836134e9565b61404e565b915b818110611cd357604051806108378582611bfd565b80611ce8611ce26001936125c4565b506140cf565b611cf282866140bb565b52611cfd81856140bb565b5001611cbe565b905038611ca9565b608460405162461bcd60e51b815260206004820152602160248201527f4b4149413a3a4272696467653a20496e76616c69642066726f6d20616e64207460448201527f6f000000000000000000000000000000000000000000000000000000000000006064820152fd5b3461053e57602060031936011261053e5760206112b2600435611d9881610603565b611dbf610fe28267ffffffffffffffff809116600052601360205260406000205416151590565b61144c61136e67ffffffffffffffff83168060005260148652611dea60ff60406000205416156135db565b614129565b3461053e57606060031936011261053e5767ffffffffffffffff60043581811161053e57611e21903690600401610779565b9060243581811161053e57611e3a903690600401610779565b9060443590811161053e57602092600192611e5c611e62933690600401610779565b916150fe565b14604051908152f35b3461053e57600060031936011261053e576020600154604051908152f35b3461053e57600060031936011261053e576020600654604051908152f35b3461053e57602060031936011261053e57600435611ed16001600160a01b03600354163314612f14565b806001547fdd89d4ddcb77ca86b9c9f02e5554b79d8b59b433066d851e5ea126993b8ca291600080a3600155005b3461053e57600060031936011261053e57602060ff600254166040519015158152f35b3461053e5760008060031936011261053e576017805490611f4282614660565b9260005b838110611f5b57604051806108378782610e25565b60019083835267ffffffffffffffff817fc624b66cc0138b8fabc209247f72d758e1cf3343756d543badbf24212bed8c15015416611f9982886140bb565b5201611f46565b3461053e57602060031936011261053e5760206112b2600435614129565b3461053e57602060031936011261053e57600435611fe86001600160a01b03600354163314612f14565b80600b547f7303d056c6d5243d142101fd24eab0d078178b99257ec851a358091fac65bd5f600080a3600b55005b3461053e57600060031936011261053e57602060ff601154166040519015158152f35b3461053e57600060031936011261053e576020600554604051908152f35b3461053e57602060031936011261053e576004357fff000000000000000000000000000000000000000000000000000000000000008116810361053e5761209f60209161414b565b604051908152f35b6020815267ffffffffffffffff8251166020820152608060606120d8602085015183604086015260a08501906107e5565b936001600160a01b0360408201511682850152015191015290565b3461053e5760606121033661190c565b6040929192516121128161069c565b60009281848093528160208201528260408201520152806004116121d95782016003199260208482840301126121d157600481013567ffffffffffffffff918282116121d55790608091019485840301126121d157604051926121748461069c565b600485013561218281610603565b845260248501359182116115e65750926121a6606492600461083796840101610779565b602084015260448101356121b981610543565b604084015201356060820152604051918291826120a7565b8280fd5b8480fd5b5080fd5b3461053e57602060031936011261053e5767ffffffffffffffff60043561220381610603565b166000526014602052602060ff604060002054166040519015158152f35b61222a3661190c565b906122336153f7565b61224260ff60115416156130c0565b60ff60025416156123b6577f58c20180b91b98e6e0c214ab2ed6428ba657677b8da73f1213e4fdb9dce208f39161234a61236a92612282600c5460ff1690565b612396575b61229560085434101561427e565b6122a36009543411156142ef565b436122d46122ba600a5467ffffffffffffffff1690565b67ffffffffffffffff166000526016602052604060002090565b55600a5467ffffffffffffffff16926123246122ef85613423565b67ffffffffffffffff167fffffffffffffffffffffffffffffffffffffffffffffffff0000000000000000600a541617600a55565b61233f61232f6106f7565b67ffffffffffffffff9095168552565b336020850152610b27565b604082015234606082015261235e81614360565b604051918291826144fd565b0390a161002160017f9b779b17422d0df92223018b32b4d1fa46e071723d6817e2486d003becc55f0055565b6123b16123ac6123a7368685610742565b6138b0565b61420d565b612287565b608460405162461bcd60e51b815260206004820152603060248201527f4b4149413a3a4272696467653a205377617020726571657573742066726f6d2060448201527f4b4149412069732064697361626c6564000000000000000000000000000000006064820152fd5b3461053e57600060031936011261053e576020600f54604051908152f35b3461053e5760008060031936011261053e57601980549061245e82614660565b9260005b83811061247757604051806108378782610e25565b60019083835267ffffffffffffffff817f944998273e477b495144fb8794c914197f3ccb46be2900f4698fd0ef743c96950154166124b582886140bb565b5201612462565b3461053e57602060031936011261053e576004356124e66001600160a01b03600354163314612f14565b6124fb81600052601060205242604060002055565b600e5490600019820191821161098357600091600e557f468a3507d22268fb97a9d268b3784814440c7d66c8b3ad80eff0961048a722888280a3005b3461053e57600060031936011261053e57610837604051612557816106b8565b600581527f352e302e3000000000000000000000000000000000000000000000000000000060208201526040519182916020835260208301906107e5565b7f4e487b7100000000000000000000000000000000000000000000000000000000600052603260045260246000fd5b601254811015611ab3576003906012600052027fbb8a6a4669ba250d26cd7a459eca9d215f8307e33aebe50379bc5a3617ec34440190600090565b3461053e57602060031936011261053e5760043560125481101561053e5761262e6001600160a01b03916125c4565b508054906126836002604051926126538461264c8160018501610cfb565b03856106d4565b015491604051948467ffffffffffffffff879616865260401c1660208501526080604085015260808401906107e5565b9060608301520390f35b3461053e57604060031936011261053e5760043567ffffffffffffffff811161053e576126be903690600401610779565b602435907fff000000000000000000000000000000000000000000000000000000000000008216820361053e5760209161209f916145b8565b3461053e57602060031936011261053e576004356127216001600160a01b03600354163314612f14565b806008547f1b7f0deea9ea187dce54b4b235a1adf4bf2cbf51ecf5e8ac20547105c8a052be600080a3600855005b3461053e57600060031936011261053e5760125461276c81614036565b61277960405191826106d4565b8181526020916020820160126000527fbb8a6a4669ba250d26cd7a459eca9d215f8307e33aebe50379bc5a3617ec3444936000915b8383106127c357604051806108378782611bfd565b6003826001926127d2896140cf565b8152019601920191946127ae565b3461053e57604060031936011261053e576004356127fd81610603565b6024359061280a82610603565b81819267ffffffffffffffff8093161561292c575b60065483918216811061291a575b50906128398482613510565b906128478360009316614660565b945b838216848216106128c1575050169161286183614660565b9260005b838116828110156128b35784916128ac8261289d6128966128886001968a6140bb565b5167ffffffffffffffff1690565b918a6140bb565b9067ffffffffffffffff169052565b0116612865565b604051806108378882610e25565b926001846128ec8394959667ffffffffffffffff809116600052601360205260406000205416151590565b6128fc575b011692919092612849565b6129158161289d8561290d8a613423565b99168b6140bb565b6128f1565b612925925016614647565b813861282d565b6001935061281f565b3461053e57608060031936011261053e5760043561295281610543565b60243561295e81610543565b6044359161296b83610543565b7ff0c57e16840df040f15088dc2f81fe391c3923bec73e23a9662efc9c229c6a00549267ffffffffffffffff60ff8560401c1615941680159081612b3d575b6001149081612b33575b159081612b2a575b50612b0057612a239284612a157ff0c57e16840df040f15088dc2f81fe391c3923bec73e23a9662efc9c229c6a0060017fffffffffffffffffffffffffffffffffffffffffffffffff0000000000000000825416179055565b612aa4575b60643592614733565b612a2957005b612a757ff0c57e16840df040f15088dc2f81fe391c3923bec73e23a9662efc9c229c6a007fffffffffffffffffffffffffffffffffffffffffffffff00ffffffffffffffff8154169055565b604051600181527fc7f505b2f371ae2175ee4913f4499e1f2633a7b5936321eed1cdaeb6115181d290602090a1005b612afb7ff0c57e16840df040f15088dc2f81fe391c3923bec73e23a9662efc9c229c6a00680100000000000000007fffffffffffffffffffffffffffffffffffffffffffffff00ffffffffffffffff825416179055565b612a1a565b60046040517ff92ee8a9000000000000000000000000000000000000000000000000000000008152fd5b905015386129bc565b303b1591506129b4565b8591506129aa565b3461053e57600060031936011261053e57602060ff600c54166040519015158152f35b3461053e57602060031936011261053e57600435612b85816114a7565b612b9b6001600160a01b03600354163314612f14565b60ff1960ff6002549215158082851615157f3eada64629927ae1a1a4b98aa7d4a80f7cf222636dd147045164c72b8c45a870600080a316911617600255600080f35b3461053e57600060031936011261053e576020601954604051908152f35b3461053e57602060031936011261053e57600435612c18816114a7565b612c2e6001600160a01b03600354163314612f14565b60ff1960ff600c5492604051901515908181527fe9e2eec3b99b1c516c9add9eb68b22aaafcf8eae59243986f20cb294e017445b6020848716151592a216911617600c55600080f35b3461053e57602060031936011261053e57600435612c9481610543565b7fffffffffffffffffffffffff00000000000000000000000000000000000000006001600160a01b0391612ccd83600354163314612f14565b826004549116809382167f142fbcfec942039c17c5d1a7100495fe199b0cc6f71f8665252070aec287a94c600080a31617600455005b3461053e57600060031936011261053e576020600a5467ffffffffffffffff6040519160401c168152f35b3461053e57610837610823612d4236610797565b614995565b3461053e57612d8e612d583661190c565b90612d6f6001600160a01b03600354163314612f14565b600160ff19601154612d8460ff8216156130c0565b1617601155613bc3565b7f4910e8e9025e52d5703324eb19309bd2d57c1be1054424a68511f84e62abe4f4600080a2005b3461053e57600060031936011261053e576020600054604051908152f35b3461053e57602060031936011261053e57600435612df081610603565b612df981614e04565b612e0d67ffffffffffffffff809316614660565b60009260005b8351811015612e655780612e3483612e2d600194886140bb565b5116614129565b612e3f575b01612e13565b82612e4a82876140bb565b5116612e5f612e5888614b5c565b97866140bb565b52612e39565b848352604051806108378582610e25565b3461053e57606060031936011261053e5760043567ffffffffffffffff811161053e57610823612ead610837923690600401610779565b6044359060243590614ca3565b3461053e57600060031936011261053e576020600754604051908152f35b3461053e57600060031936011261053e576020600d54604051908152f35b3461053e57600060031936011261053e576020600b54604051908152f35b15612f1b57565b606460405162461bcd60e51b815260206004820152601d60248201527f4b4149413a3a4272696467653a204e6f7420616e20677561726469616e0000006044820152fd5b606051811015611ab35760800190565b908151811015611ab3570160200190565b7f4e487b7100000000000000000000000000000000000000000000000000000000600052601160045260246000fd5b9060009160005b815181101561308f577fff00000000000000000000000000000000000000000000000000000000000000907f41000000000000000000000000000000000000000000000000000000000000008261300d8386612f6f565b5116101580613059575b613026575b6001915001612fb6565b6130308184612f6f565b5191602060f893841c0160ff8111610983576001931b16851a6130538285612f6f565b5361301c565b507f5a00000000000000000000000000000000000000000000000000000000000000826130868386612f6f565b51161115613017565b509150565b906001820180921161098357565b906301e13380820180921161098357565b9190820180921161098357565b156130c757565b608460405162461bcd60e51b8152602060048201526024808201527f4b4149413a3a4272696467653a2042726964676520686173206265656e20706160448201527f75736564000000000000000000000000000000000000000000000000000000006064820152fd5b3561079481610603565b1561314157565b608460405162461bcd60e51b815260206004820152602e60248201527f4b4149413a3a4272696467653a20412070726f766973696f6e2077617320737560448201527f626d6974746564206265666f72650000000000000000000000000000000000006064820152fd5b7f4e487b7100000000000000000000000000000000000000000000000000000000600052600060045260246000fd5b9035907fffffffffffffffffffffffffffffffffffffffffffffffffffffffffffffffe18136030182121561053e570180359067ffffffffffffffff821161053e5760200191813603831361053e57565b818110613236575050565b6000815560010161322b565b9190601f811161325157505050565b610704926000526020600020906020601f840160051c8301931061327d575b601f0160051c019061322b565b9091508190613270565b3561079481610543565b906132d581356132a081610603565b839067ffffffffffffffff167fffffffffffffffffffffffffffffffffffffffffffffffff0000000000000000825416179055565b60018083019060206132ea60208501856131da565b9267ffffffffffffffff84116106975761330e846133088754610ca8565b87613242565b600092601f85116001146133a257505082600395936060959361334793600092613397575b50506000198260011b9260031b1c19161790565b90555b61339061335960408301613287565b60028601906001600160a01b03167fffffffffffffffffffffffff0000000000000000000000000000000000000000825416179055565b0135910155565b013590503880613333565b9290601f198516906133b987600052602060002090565b9483915b838310613400575050509260019285926003989660609896106133e8575b505050811b01905561334a565b013560001983891b60f8161c191690553880806133db565b8585013587559586019593810193918101916133bd565b6040513d6000823e3d90fd5b67ffffffffffffffff8091169081146109835760010190565b1561344357565b608460405162461bcd60e51b815260206004820152603660248201527f4b4149413a3a4272696467653a204e6f2070726f7669736f6e656420666f722060448201527f636f72726573706f6e64696e672073657175656e6365000000000000000000006064820152fd5b90600019820191821161098357565b907ffffffffffffffffffffffffffffffffffffffffffffffffffffffffffffffffa820191821161098357565b9190820391821161098357565b9060001967ffffffffffffffff8093160191821161098357565b67ffffffffffffffff918216908216039190821161098357565b6020815267ffffffffffffffff8254166020820152608060408201526080600361355a60a0840160018601610cfb565b936001600160a01b036002820154166060850152015491015290565b6003600091828155826001820161358d8154610ca8565b8061359e575b505060028201550155565b82601f82116001146135b6575050555b823880613593565b90918082526135d4601f60208420940160051c84016001850161322b565b55556135ae565b156135e257565b60a460405162461bcd60e51b815260206004820152604e60248201527f4b4149413a3a4272696467653a20412070726f766973696f6e20636f7272657360448201527f706f6e64696e672074686520676976656e2073657175656e636520776173206160648201527f6c726561647920636c61696d65640000000000000000000000000000000000006084820152fd5b1561367957565b608460405162461bcd60e51b815260206004820152603260248201527f4b4149413a3a4272696467653a2054696d654c6f636b206475726174696f6e2060448201527f6973206e6f7420706173736564206f76657200000000000000000000000000006064820152fd5b156136ea57565b608460405162461bcd60e51b815260206004820152602a60248201527f4b4149413a3a4272696467653a204d75737420626520696e20636c61696d206660448201527f61696c75726520736574000000000000000000000000000000000000000000006064820152fd5b1561375b57565b608460405162461bcd60e51b815260206004820152603660248201527f4b4149413a3a4272696467653a206e65775265636569766572206d757374206e60448201527f6f7420626520636f6e74726163742061646472657373000000000000000000006064820152fd5b906001820191600060018412911290801582169115161761098357565b6137eb8161450e565b9060018212801561388e575b61384a5761381d8161381561380f8561382295614bdc565b946137c5565b815191614ca3565b61506d565b9161384461383961383385516134bc565b85614bdc565b9361381581516134bc565b91929190565b606460405162461bcd60e51b815260206004820152601760248201527f696e76616c696420736570617261746f7220696e6465780000000000000000006044820152fd5b50600782016007811260008412908015821691151617610983578151126137f7565b6008815110613970576001816138f56138e97f90430203e2d9ce04f00738d355173358b054545ecb52218de9c6fb01cbd9aeaf946137e2565b818396939492946150fe565b03613939575b50506040516139276020828161391a81830196878151938492016107c2565b81010380845201826106d4565b5190200361393457600190565b600090565b61395461394d8361381561396995516134bc565b9184613c5c565b60208151910120906020815191012014613b0f565b38806138fb565b606460405162461bcd60e51b815260206004820152601c60248201527f696e76616c69642062656368333220737472696e67206c656e677468000000006044820152fd5b7f90430203e2d9ce04f00738d355173358b054545ecb52218de9c6fb01cbd9aeaf916139df91613b5a565b506040516139276020828161391a81830196878151938492016107c2565b15613a0457565b608460405162461bcd60e51b815260206004820152602860248201527f4b4149413a3a4272696467653a2042726964676520686173206e6f742062656560448201527f6e207061757365640000000000000000000000000000000000000000000000006064820152fd5b3d15613a99573d90613a7f82610726565b91613a8d60405193846106d4565b82523d6000602084013e565b606090565b15613aa557565b608460405162461bcd60e51b815260206004820152602b60248201527f4b4149413a3a4272696467653a204661696c656420746f206275726e2062726960448201527f6467652062616c616e63650000000000000000000000000000000000000000006064820152fd5b15613b1657565b606460405162461bcd60e51b815260206004820152601060248201527f496e76616c696420636865636b73756d000000000000000000000000000000006044820152fd5b9190600883511061397057600192613b919115613bbe57613b7a90614995565b613b96613b86826137e2565b8183969298936150fe565b141590565b613b9f57509190565b613bb081613815613bba93516134bc565b6139548584613c5c565b9190565b613b7a565b81604051928392833781016000815203902090565b60405190613be5826106b8565b6006825260203681840137565b90613bfc82610726565b613c0960405191826106d4565b828152601f19613c198294610726565b0190602036910137565b60405190613c30826106b8565b602082527f71707a7279397838676632747664773073336a6e35346b686365366d7561376c6020830152565b919091613c67610706565b633b6a57b28152906326508e6d6020830152631ea119fa6040830152606091613c9660608201633d4233dd9052565b632a1462b3608082015260019360005b8351811015613d6c578560191c95613d05613cff613cf6613cf0613cca868a612f6f565b517fff000000000000000000000000000000000000000000000000000000000000001690565b60f81c90565b60051c60071690565b60ff1690565b633fffffe0600592831b16189660005b828110613d2757505050600101613ca6565b60018083831c1614613d3c575b600101613d15565b97600190613d63613d5a613d508c8a6150ed565b5163ffffffff1690565b63ffffffff1690565b18989050613d34565b50926019958560191c91633fffffe09182600598891b169360005b8981106140045750509091926000905b898751831015613e165781901c949392919084613dc6601f613dbf613cf0613cca878e612f6f565b1660ff1690565b918b1b16189460005b8a8110613de457505060010190919293613d97565b60018083831c1614613df9575b600101613dcf565b95600190613e0d613d5a613d508a8c6150ed565b18969050613df1565b509392969195505060005b8551811015613e8e5783891c9383613e42613cff613cf0613cca868c612f6f565b918a1b16189360005b898110613e5c575050600101613e21565b60018083831c1614613e71575b600101613e4b565b94600190613e85613d5a613d50898b6150ed565b18959050613e69565b50969350909360605115600014613f82575060005b60068110613f3457505050506001905b18613ebc613bd8565b9160005b60068110613ece5750505090565b80820390828211610983578183029183830403610983577fff00000000000000000000000000000000000000000000000000000000000000613f1e601f866001951c16613f19613c23565b612f6f565b511660001a613f2d8287612f6f565b5301613ec0565b84861b821694841c60005b878110613f50575050600101613ea3565b60018083831c1614613f65575b600101613f3f565b95600190613f79613d5a613d508a896150ed565b18969050613f5d565b9390929560005b8551811015613ff55782881c9285613fa9613cff613cf0613cca86612f5f565b91891b16189260005b888110613fc3575050600101613f89565b60018083831c1614613fd8575b600101613fb2565b93600190613fec613d5a613d50888a6150ed565b18949050613fd0565b50955091505060019150613eb3565b60018083831c1614614019575b600101613d87565b9460019061402d613d5a613d50898b6150ed565b18959050614011565b67ffffffffffffffff81116106975760051b60200190565b9061405882614036565b60409061406860405191826106d4565b838152601f196140788295614036565b019160009160005b84811061408e575050505050565b602090835161409c8161069c565b8581528286818301528660608088850152830152828501015201614080565b8051821015611ab35760209160051b010190565b906040516140dc8161069c565b6060600282946001600160a01b03815467ffffffffffffffff8116865260401c16602085015260405161411d816141168160018601610cfb565b03826106d4565b60408501520154910152565b60005260106020526040600020548015159081614144575090565b9050421190565b60005b614156613c23565b518110156141a3577fff000000000000000000000000000000000000000000000000000000000000008061418c83613f19613c23565b51169083161461419e5760010161414e565b905090565b608460405162461bcd60e51b815260206004820152602160248201527f4e6f7420666f756e642074686520636f72726573706f6e64696e6720696e646560448201527f78000000000000000000000000000000000000000000000000000000000000006064820152fd5b1561421457565b608460405162461bcd60e51b815260206004820152602960248201527f4b4149413a3a4272696467653a2052656365697665722061646472657373206960448201527f7320696e76616c696400000000000000000000000000000000000000000000006064820152fd5b1561428557565b608460405162461bcd60e51b815260206004820152603560248201527f4b4149413a3a4272696467653a204c6f636b6564204b414941206d757374206260448201527f65206c6172676572207468616e206d696e696d756d00000000000000000000006064820152fd5b156142f657565b608460405162461bcd60e51b815260206004820152603360248201527f4b4149413a3a4272696467653a204c6f636b6564204b414941206d757374206260448201527f65206c657373207468616e206d6178696d756d000000000000000000000000006064820152fd5b601254906801000000000000000082101561069757614387600192600181016012556125c4565b9290926144f857815183547fffffffffffffffffffffffffffffffffffffffffffffffff00000000000000001667ffffffffffffffff91821617845560208381015185547fffffffff0000000000000000000000000000000000000000ffffffffffffffff16604091821b7bffffffffffffffffffffffffffffffffffffffff000000000000000016178655840151805160018701949093841161069757614433846133088754610ca8565b602092601f851160011461448057505082600295936060959361446b936000926144755750506000198260011b9260031b1c19161790565b90555b0151910155565b015190503880613333565b929190601f1985169061449887600052602060002090565b946000915b8383106144e1575050509260019285926002989660609896106144c8575b505050811b01905561446e565b015160001960f88460031b161c191690553880806144bb565b84860151875595860195948101949181019161449d565b6131ab565b906020610794928181520190611bb6565b80519060001991828101908113600116610983575b600081121561453157505090565b7f31000000000000000000000000000000000000000000000000000000000000007fff0000000000000000000000000000000000000000000000000000000000000061457d8385612f6f565b5116146145b2577f80000000000000000000000000000000000000000000000000000000000000008114610983578201614523565b91505090565b80519160001992838101908113600116610983575b60008112156145dc5750505090565b7fff00000000000000000000000000000000000000000000000000000000000000806146088386612f6f565b511690831614614640577f800000000000000000000000000000000000000000000000000000000000000081146109835783016145cd565b9250505090565b90600167ffffffffffffffff8093160191821161098357565b9061466a82614036565b61467760405191826106d4565b828152601f19613c198294614036565b9081602091031261053e5751610794816114a7565b156146a357565b60a460405162461bcd60e51b815260206004820152604560248201527f4b4149413a3a427269646765723a204f70657261746f7220636f6e747261637460448201527f206164647265737320646f6573206e6f7420696d706c656d656e7420494f706560648201527f7261746f720000000000000000000000000000000000000000000000000000006084820152fd5b6040517f01ffc9a70000000000000000000000000000000000000000000000000000000081527f239840d40000000000000000000000000000000000000000000000000000000060048201529192916020816024816001600160a01b0386165afa948515610bec5761482061491b946147bb61494f986148ba95600091614966575b5061469c565b6147c3615451565b426000556147d86147d3426130a2565b600155565b6147e26000600555565b6147ec6000600655565b6001600160a01b03167fffffffffffffffffffffffff00000000000000000000000000000000000000006004541617600455565b614832600160ff19600c541617600c55565b6148446802b5e3af16b1880000600855565b6148586a084595161401484a000000600955565b61488860017fffffffffffffffffffffffffffffffffffffffffffffffff0000000000000000600a541617600a55565b6148b57fffffffffffffffffffffffffffffffff0000000000000000ffffffffffffffff600a5416600a55565b600b55565b6148c5610708600d55565b6148d460ff1960115416601155565b7fffffffffffffffffffffff0000000000000000000000000000000000000000ff74ffffffffffffffffffffffffffffffffffffffff006002549260081b16911617600255565b6001600160a01b03167fffffffffffffffffffffffff00000000000000000000000000000000000000006003541617600355565b61495e60ff1960025416600255565b6107046157f1565b614988915060203d60201161498e575b61498081836106d4565b810190614687565b386147b5565b503d614976565b60009060009060005b8151811015614b495760216149bc613cff613cf0613cca8587612f6f565b108015614b2d575b614ae8578315614aa3575b838315614a5e575b8381614a56575b506149eb5760010161499e565b60405162461bcd60e51b815260206004820152602960248201527f737472696e67206e6f7420616c6c206c6f77657263617365206f7220616c6c2060448201527f75707065726361736500000000000000000000000000000000000000000000006064820152608490fd5b9050386149de565b925060ff604181614a75613cf0613cca8688612f6f565b1610159081614a86575b50926149d7565b605a9150614a9a613cf0613cca8587612f6f565b16111538614a7f565b925060ff606181614aba613cf0613cca8887612f6f565b1610159081614acb575b50926149cf565b607a9150614adf613cf0613cca8786612f6f565b16111538614ac4565b60405162461bcd60e51b815260206004820152601760248201527f4e6f7420616c6c6f7765642041534349492076616c75650000000000000000006044820152606490fd5b50607e60ff614b42613cf0613cca8587612f6f565b16116149c4565b509150614b535790565b61079490612faf565b60001981146109835760010190565b15614b7257565b608460405162461bcd60e51b815260206004820152602b60248201527f746f206d757374206265206c657373207468616e206f7220657175616c20736f60448201527f75726365206c656e6774680000000000000000000000000000000000000000006064820152fd5b91908015614c5f57614bf18351821115614b6b565b614bfa81613bf2565b9060008060005b838110614c115750929450505050565b807fff00000000000000000000000000000000000000000000000000000000000000614c3f6001938a612f6f565b511693614c58614c4e82614b5c565b95851a9188612f6f565b5301614c01565b606460405162461bcd60e51b815260206004820152601960248201527f66726f6d206d757374206265206c657373207468616e20746f000000000000006044820152fd5b929181811115614c5f57614cba8451821115614b6b565b614ccc614cc783836134e9565b613bf2565b91600080915b838110614ce25750929450505050565b80614cf2613cca6001938a612f6f565b93614cff614c4e82614b5c565b5301614cd2565b7fe9ff06928457f217f1eb646829c843fb5f899852b604f31d4250b5c33354151360408051338152346020820152a1565b67ffffffffffffffff420190814211610983576000526010602052604060002055565b90420190814211610983576000526010602052604060002055565b8060055410614d815750565b600555565b67ffffffffffffffff80821615159081614de9575b50614da35750565b610704907fffffffffffffffffffffffffffffffff0000000000000000ffffffffffffffff6fffffffffffffffff0000000000000000600a549260401b16911617600a55565b600a5460401c81169150614dfc836134f6565b161438614d9b565b67ffffffffffffffff8091169060199160195492838211614e85575b614e2982614660565b9360009060005b848110614e405750505050505090565b81811015611ab35760019084845286817f944998273e477b495144fb8794c914197f3ccb46be2900f4698fd0ef743c9695015416614e7e828a6140bb565b5201614e30565b839150614e20565b614eb18167ffffffffffffffff809116600052601360205260406000205416151590565b158015614eed575b8015614ed3575b614ecd5761079490615003565b50600090565b50614ee767ffffffffffffffff8216614129565b15614ec0565b5067ffffffffffffffff8116600052601460205260ff60406000205416614eb9565b67ffffffffffffffff614f79818316918260005260136020526003604060002060405192614f3c8461069c565b8154168352604051614f55816141168160018601610cfb565b60208401526001600160a01b03600282015416604084015201546060820152615487565b614f84575050600090565b611087614ff86003614fee85614fc1614fb4614ffd9867ffffffffffffffff166000526014602052604060002090565b600160ff19825416179055565b614fd4614fcf600754613094565b600755565b67ffffffffffffffff166000526013602052604060002090565b0154600f546130b3565b600f55565b50600190565b67ffffffffffffffff614f798183169182600052601360205260036040600020604051926150308461069c565b8154168352604051615049816141168160018601610cfb565b60208401526001600160a01b0360028201541660408401520154606082015261561f565b906150788251613bf2565b60009260005b81518110156150d7576001907fff000000000000000000000000000000000000000000000000000000000000006150c0816150b98487612f6f565b511661414b565b60f81b16861a6150d08286612f6f565b530161507e565b5090925050565b9081602091031261053e575190565b906005811015611ab35760051b0190565b9291909261510a610706565b633b6a57b281526326508e6d6020820152631ea119fa6040820152633d4233dd6060820152632a1462b3608082015260019360005b83518110156151b7578560191c95615163613cff613cf6613cf0613cca868a612f6f565b633fffffe0600592831b16189660005b8281106151855750505060010161513f565b60018083831c161461519a575b600101615173565b976001906151ae613d5a613d508c8a6150ed565b18989050615192565b50926019958560191c91633fffffe09182600598891b169360005b8981106153c55750509091926000905b89875183101561525a5781901c94939291908461520a601f613dbf613cf0613cca878e612f6f565b918b1b16189460005b8a8110615228575050600101909192936151e2565b60018083831c161461523d575b600101615213565b95600190615251613d5a613d508a8c6150ed565b18969050615235565b509392969195505060005b85518110156152d25783891c9383615286613cff613cf0613cca868c612f6f565b918a1b16189360005b8981106152a0575050600101615265565b60018083831c16146152b5575b60010161528f565b946001906152c9613d5a613d50898b6150ed565b189590506152ad565b50969350909493805115600014615345575060005b600681106152f757505050505090565b85851b821695841c60005b8681106153135750506001016152e7565b60018083831c1614615328575b600101615302565b9660019061533c613d5a613d508b896150ed565b18979050615320565b929593949060005b84518110156153ba5782881c928261536e613cff613cf0613cca868b612f6f565b91891b16189260005b88811061538857505060010161534d565b60018083831c161461539d575b600101615377565b936001906153b1613d5a613d50888a6150ed565b18949050615395565b505093505050915090565b60018083831c16146153da575b6001016151d2565b946001906153ee613d5a613d50898b6150ed565b189590506153d2565b7f9b779b17422d0df92223018b32b4d1fa46e071723d6817e2486d003becc55f0060028154146154275760029055565b60046040517f3ee5aeb5000000000000000000000000000000000000000000000000000000008152fd5b6154596157f1565b6154616157f1565b60017f9b779b17422d0df92223018b32b4d1fa46e071723d6817e2486d003becc55f0055565b61548f6153f7565b4760608201908151101561558f576000808080936001600160a01b036040870151169051905a60011cf16154c1613a6e565b5015615524576154f87f177b6046feaa5ac9793d715b69a9056ccd504da33d2f1f5d5588dfa654ddfa1991604051918291826120a7565b0390a160019060017f9b779b17422d0df92223018b32b4d1fa46e071723d6817e2486d003becc55f0055565b60405162461bcd60e51b815260206004820152603460248201527f4b4149413a3a4272696467653a204661696c656420746f207472616e7366657260448201527f20616d6f756e74206f662070726f766973696f6e0000000000000000000000006064820152608490fd5b60a460405162461bcd60e51b815260206004820152604760248201527f4b4149413a3a4272696467653a204272696467652062616c616e63652069732060448201527f6e6f7420656e6f75676820746f207472616e736665722070726f766973696f6e60648201527f20616d6f756e74000000000000000000000000000000000000000000000000006084820152fd5b6156309061562b6153f7565b615657565b9060017f9b779b17422d0df92223018b32b4d1fa46e071723d6817e2486d003becc55f0055565b476060820190815110156156dc576000808080936001600160a01b036040870151169051905a60011cf1615689613a6e565b50156156c8576156c07f177b6046feaa5ac9793d715b69a9056ccd504da33d2f1f5d5588dfa654ddfa1991604051918291826120a7565b0390a1600190565b67ffffffffffffffff613934915116615b92565b5067ffffffffffffffff613934915116615b92565b90813b156157b7576001600160a01b0382167f360894a13ba1a3210667c828492db98dca3e2076cc3735a920a3ca505d382bbc817fffffffffffffffffffffffff00000000000000000000000000000000000000008254161790557fbc7cd75a20ee27fd9adebab32041f755214dbc6bffa90cc0225b39da2e5c2d3b600080a28051156157845761578191615be3565b50565b50503461578d57565b60046040517fb398979f000000000000000000000000000000000000000000000000000000008152fd5b6024826001600160a01b03604051917f4c9c8ce3000000000000000000000000000000000000000000000000000000008352166004820152fd5b60ff7ff0c57e16840df040f15088dc2f81fe391c3923bec73e23a9662efc9c229c6a005460401c161561582057565b60046040517fd7e6bcf8000000000000000000000000000000000000000000000000000000008152fd5b601954811015611ab35760196000527f944998273e477b495144fb8794c914197f3ccb46be2900f4698fd0ef743c96950190600090565b601754811015611ab35760176000527fc624b66cc0138b8fabc209247f72d758e1cf3343756d543badbf24212bed8c150190600090565b80600052601a60205260406000205415600014614ecd5760195468010000000000000000811015610697576001810180601955811015611ab35781907f944998273e477b495144fb8794c914197f3ccb46be2900f4698fd0ef743c9695015560195490600052601a602052604060002055600190565b80600052601860205260406000205415600014614ecd5760175468010000000000000000811015610697576001810180601755811015611ab35781907fc624b66cc0138b8fabc209247f72d758e1cf3343756d543badbf24212bed8c150155601754906000526018602052604060002055600190565b60195480156159ea5760001981019080821015611ab3577f944998273e477b495144fb8794c914197f3ccb46be2900f4698fd0ef743c9694600091601983520155601955565b7f4e487b7100000000000000000000000000000000000000000000000000000000600052603160045260246000fd5b60175480156159ea5760001981019080821015611ab3577fc624b66cc0138b8fabc209247f72d758e1cf3343756d543badbf24212bed8c14600091601783520155601755565b6000818152601a60205260409020548015615b0957600019918282019180831161098357601954938401938411610983578383600095615aba9503615ac0575b505050615aaa6159a4565b600052601a602052604060002090565b55600190565b615aaa615ae891615ae0615ad6615b009561584a565b90549060031b1c90565b92839161584a565b90919060001983549160031b92831b921b1916179055565b55388080615a9f565b5050600090565b6000818152601860205260409020548015615b0957600019918282019180831161098357601754938401938411610983578383600095615aba9503615b6b575b505050615b5b615a19565b6000526018602052604060002090565b615b5b615ae891615b81615ad6615b8995615881565b928391615881565b55388080615b50565b67ffffffffffffffff168060005260156020526040600020615bb48154614b5c565b9055806000526015602052604060002054600b5410615bd05750565b80615bdd61578192615a5f565b5061592e565b60008061079493602081519101845af4615bfb613a6e565b9190615c3b5750805115615c1157805190602001fd5b60046040517f1425ea42000000000000000000000000000000000000000000000000000000008152fd5b81511580615c86575b615c4c575090565b6024906001600160a01b03604051917f9996b315000000000000000000000000000000000000000000000000000000008352166004820152fd5b50803b15615c4456fea264697066735822122060ae946e1298641da7d97b5354c14a21dac7c18a2ffcfcba16205b9ad017861964736f6c63430008180033",
  "linkReferences": {},
  "deployedLinkReferences": {}
}