{
  "_format": "hh-sol-artifact-1",
  "contractName": "KAIABridge",
  "sourceName": "contracts/Bridge.sol",
  "abi": [
    {
      "inputs": [],
      "stateMutability": "nonpayable",
      "type": "constructor"
    },
    {
      "inputs": [
        {
          "internalType": "address",
          "name": "target",
          "type": "address"
        }
      ],
      "name": "AddressEmptyCode",
      "type": "error"
    },
    {
      "inputs": [
        {
          "internalType": "address",
          "name": "implementation",
          "type": "address"
        }
      ],
      "name": "ERC1967InvalidImplementation",
      "type": "error"
    },
    {
      "inputs": [],
      "name": "ERC1967NonPayable",
      "type": "error"
    },
    {
      "inputs": [],
      "name": "FailedInnerCall",
      "type": "error"
    },
    {
      "inputs": [],
      "name": "InvalidInitialization",
      "type": "error"
    },
    {
      "inputs": [],
      "name": "NotInitializing",
      "type": "error"
    },
    {
      "inputs": [],
      "name": "ReentrancyGuardReentrantCall",
      "type": "error"
    },
    {
      "inputs": [],
      "name": "UUPSUnauthorizedCallContext",
      "type": "error"
    },
    {
      "inputs": [
        {
          "internalType": "bytes32",
          "name": "slot",
          "type": "bytes32"
        }
      ],
      "name": "UUPSUnsupportedProxiableUUID",
      "type": "error"
    },
    {
      "anonymous": false,
      "inputs": [
        {
          "indexed": true,
          "internalType": "string",
          "name": "msg",
          "type": "string"
        }
      ],
      "name": "BridgePause",
      "type": "event"
    },
    {
      "anonymous": false,
      "inputs": [
        {
          "indexed": true,
          "internalType": "string",
          "name": "msg",
          "type": "string"
        }
      ],
      "name": "BridgeResume",
      "type": "event"
    },
    {
      "anonymous": false,
      "inputs": [
        {
          "indexed": true,
          "internalType": "bool",
          "name": "before",
          "type": "bool"
        },
        {
          "indexed": false,
          "internalType": "bool",
          "name": "now",
          "type": "bool"
        }
      ],
      "name": "ChangeAddrValidation",
      "type": "event"
    },
    {
      "anonymous": false,
      "inputs": [
        {
          "indexed": true,
          "internalType": "address",
          "name": "beforeGuardian",
          "type": "address"
        },
        {
          "indexed": true,
          "internalType": "address",
          "name": "newGuardian",
          "type": "address"
        }
      ],
      "name": "ChangeGuardian",
      "type": "event"
    },
    {
      "anonymous": false,
      "inputs": [
        {
          "indexed": true,
          "internalType": "address",
          "name": "beforeJudge",
          "type": "address"
        },
        {
          "indexed": true,
          "internalType": "address",
          "name": "newJudge",
          "type": "address"
        }
      ],
      "name": "ChangeJudge",
      "type": "event"
    },
    {
      "anonymous": false,
      "inputs": [
        {
          "indexed": true,
          "internalType": "address",
          "name": "beforeOperator",
          "type": "address"
        },
        {
          "indexed": true,
          "internalType": "address",
          "name": "newOperator",
          "type": "address"
        }
      ],
      "name": "ChangeOperator",
      "type": "event"
    },
    {
      "anonymous": false,
      "inputs": [
        {
          "indexed": true,
          "internalType": "uint256",
          "name": "time",
          "type": "uint256"
        }
      ],
      "name": "ChangeTransferTimeLock",
      "type": "event"
    },
    {
      "anonymous": false,
      "inputs": [
        {
          "components": [
            {
              "internalType": "uint64",
              "name": "seq",
              "type": "uint64"
            },
            {
              "internalType": "string",
              "name": "sender",
              "type": "string"
            },
            {
              "internalType": "address",
              "name": "receiver",
              "type": "address"
            },
            {
              "internalType": "uint256",
              "name": "amount",
              "type": "uint256"
            }
          ],
          "indexed": false,
          "internalType": "struct IBridge.ProvisionData",
          "name": "provision",
          "type": "tuple"
        }
      ],
      "name": "Claim",
      "type": "event"
    },
    {
      "anonymous": false,
      "inputs": [
        {
          "indexed": true,
          "internalType": "uint256",
          "name": "seq",
          "type": "uint256"
        },
        {
          "indexed": true,
          "internalType": "uint256",
          "name": "time",
          "type": "uint256"
        }
      ],
      "name": "HoldClaim",
      "type": "event"
    },
    {
      "anonymous": false,
      "inputs": [
        {
          "indexed": false,
          "internalType": "uint64",
          "name": "version",
          "type": "uint64"
        }
      ],
      "name": "Initialized",
      "type": "event"
    },
    {
      "anonymous": false,
      "inputs": [
        {
          "indexed": false,
          "internalType": "address",
          "name": "sender",
          "type": "address"
        },
        {
          "indexed": false,
          "internalType": "uint256",
          "name": "amount",
          "type": "uint256"
        }
      ],
      "name": "KAIACharged",
      "type": "event"
    },
    {
      "anonymous": false,
      "inputs": [
        {
          "indexed": true,
          "internalType": "uint256",
          "name": "beforeMaxLock",
          "type": "uint256"
        },
        {
          "indexed": true,
          "internalType": "uint256",
          "name": "newMaxLock",
          "type": "uint256"
        }
      ],
      "name": "MaxLockableKAIAChange",
      "type": "event"
    },
    {
      "anonymous": false,
      "inputs": [
        {
          "indexed": true,
          "internalType": "uint256",
          "name": "maxTryTransfer",
          "type": "uint256"
        },
        {
          "indexed": true,
          "internalType": "uint256",
          "name": "newMaxTryTransfer",
          "type": "uint256"
        }
      ],
      "name": "MaxTryTransferChange",
      "type": "event"
    },
    {
      "anonymous": false,
      "inputs": [
        {
          "indexed": true,
          "internalType": "uint256",
          "name": "beforeMinLock",
          "type": "uint256"
        },
        {
          "indexed": true,
          "internalType": "uint256",
          "name": "newMinLock",
          "type": "uint256"
        }
      ],
      "name": "MinLockableKAIAChange",
      "type": "event"
    },
    {
      "anonymous": false,
      "inputs": [
        {
          "components": [
            {
              "internalType": "uint64",
              "name": "seq",
              "type": "uint64"
            },
            {
              "internalType": "string",
              "name": "sender",
              "type": "string"
            },
            {
              "internalType": "address",
              "name": "receiver",
              "type": "address"
            },
            {
              "internalType": "uint256",
              "name": "amount",
              "type": "uint256"
            },
            {
              "internalType": "uint64",
              "name": "txID",
              "type": "uint64"
            },
            {
              "internalType": "address",
              "name": "operator",
              "type": "address"
            }
          ],
          "indexed": false,
          "internalType": "struct IBridge.ProvisionIndividualEvent",
          "name": "provision",
          "type": "tuple"
        }
      ],
      "name": "Provision",
      "type": "event"
    },
    {
      "anonymous": false,
      "inputs": [
        {
          "components": [
            {
              "internalType": "uint64",
              "name": "seq",
              "type": "uint64"
            },
            {
              "internalType": "string",
              "name": "sender",
              "type": "string"
            },
            {
              "internalType": "address",
              "name": "receiver",
              "type": "address"
            },
            {
              "internalType": "uint256",
              "name": "amount",
              "type": "uint256"
            }
          ],
          "indexed": false,
          "internalType": "struct IBridge.ProvisionConfirmedEvent",
          "name": "provision",
          "type": "tuple"
        }
      ],
      "name": "ProvisionConfirm",
      "type": "event"
    },
    {
      "anonymous": false,
      "inputs": [
        {
          "indexed": true,
          "internalType": "address",
          "name": "beforeReceiver",
          "type": "address"
        },
        {
          "indexed": true,
          "internalType": "address",
          "name": "newReceiver",
          "type": "address"
        }
      ],
      "name": "ProvisionReceiverChanged",
      "type": "event"
    },
    {
      "anonymous": false,
      "inputs": [
        {
          "indexed": true,
          "internalType": "uint256",
          "name": "seq",
          "type": "uint256"
        },
        {
          "indexed": true,
          "internalType": "uint256",
          "name": "time",
          "type": "uint256"
        }
      ],
      "name": "ReleaseClaim",
      "type": "event"
    },
    {
      "anonymous": false,
      "inputs": [
        {
          "components": [
            {
              "internalType": "uint64",
              "name": "seq",
              "type": "uint64"
            },
            {
              "internalType": "string",
              "name": "sender",
              "type": "string"
            },
            {
              "internalType": "address",
              "name": "receiver",
              "type": "address"
            },
            {
              "internalType": "uint256",
              "name": "amount",
              "type": "uint256"
            }
          ],
          "indexed": false,
          "internalType": "struct IBridge.ProvisionData",
          "name": "provision",
          "type": "tuple"
        }
      ],
      "name": "RemoveProvision",
      "type": "event"
    },
    {
      "anonymous": false,
      "inputs": [
        {
          "components": [
            {
              "internalType": "uint64",
              "name": "seq",
              "type": "uint64"
            },
            {
              "internalType": "address",
              "name": "sender",
              "type": "address"
            },
            {
              "internalType": "string",
              "name": "receiver",
              "type": "string"
            },
            {
              "internalType": "uint256",
              "name": "amount",
              "type": "uint256"
            }
          ],
          "indexed": false,
          "internalType": "struct IBridge.SwapRequest",
          "name": "lockInfo",
          "type": "tuple"
        }
      ],
      "name": "Transfer",
      "type": "event"
    },
    {
      "anonymous": false,
      "inputs": [
        {
          "indexed": true,
          "internalType": "bool",
          "name": "transferFromKaiaOn",
          "type": "bool"
        },
        {
          "indexed": true,
          "internalType": "bool",
          "name": "set",
          "type": "bool"
        }
      ],
      "name": "TransferFromKaiaOnOffChanged",
      "type": "event"
    },
    {
      "anonymous": false,
      "inputs": [
        {
          "indexed": true,
          "internalType": "address",
          "name": "implementation",
          "type": "address"
        }
      ],
      "name": "Upgraded",
      "type": "event"
    },
    {
      "inputs": [],
      "name": "KAIA_UNIT",
      "outputs": [
        {
          "internalType": "uint256",
          "name": "",
          "type": "uint256"
        }
      ],
      "stateMutability": "view",
      "type": "function"
    },
    {
      "inputs": [],
      "name": "TRANSFERLOCK",
      "outputs": [
        {
          "internalType": "uint256",
          "name": "",
          "type": "uint256"
        }
      ],
      "stateMutability": "view",
      "type": "function"
    },
    {
      "inputs": [],
      "name": "UPGRADE_INTERFACE_VERSION",
      "outputs": [
        {
          "internalType": "string",
          "name": "",
          "type": "string"
        }
      ],
      "stateMutability": "view",
      "type": "function"
    },
    {
      "inputs": [],
      "name": "addrValidationOn",
      "outputs": [
        {
          "internalType": "bool",
          "name": "",
          "type": "bool"
        }
      ],
      "stateMutability": "view",
      "type": "function"
    },
    {
      "inputs": [
        {
          "internalType": "bytes",
          "name": "data",
          "type": "bytes"
        }
      ],
      "name": "bytes2Provision",
      "outputs": [
        {
          "components": [
            {
              "internalType": "uint64",
              "name": "seq",
              "type": "uint64"
            },
            {
              "internalType": "string",
              "name": "sender",
              "type": "string"
            },
            {
              "internalType": "address",
              "name": "receiver",
              "type": "address"
            },
            {
              "internalType": "uint256",
              "name": "amount",
              "type": "uint256"
            }
          ],
          "internalType": "struct IBridge.ProvisionData",
          "name": "",
          "type": "tuple"
        }
      ],
      "stateMutability": "pure",
      "type": "function"
    },
    {
      "inputs": [
        {
          "internalType": "bytes",
          "name": "strBytes",
          "type": "bytes"
        }
      ],
      "name": "bytesToLowerString",
      "outputs": [
        {
          "internalType": "bytes",
          "name": "",
          "type": "bytes"
        }
      ],
      "stateMutability": "pure",
      "type": "function"
    },
    {
      "inputs": [
        {
          "internalType": "address",
          "name": "newGuardian",
          "type": "address"
        }
      ],
      "name": "changeGuardian",
      "outputs": [],
      "stateMutability": "nonpayable",
      "type": "function"
    },
    {
      "inputs": [
        {
          "internalType": "address",
          "name": "newJudge",
          "type": "address"
        }
      ],
      "name": "changeJudge",
      "outputs": [],
      "stateMutability": "nonpayable",
      "type": "function"
    },
    {
      "inputs": [
        {
          "internalType": "uint256",
          "name": "newMaxLockableKAIA",
          "type": "uint256"
        }
      ],
      "name": "changeMaxLockableKAIA",
      "outputs": [],
      "stateMutability": "nonpayable",
      "type": "function"
    },
    {
      "inputs": [
        {
          "internalType": "uint256",
          "name": "newMaxTryTransfer",
          "type": "uint256"
        }
      ],
      "name": "changeMaxTryTransfer",
      "outputs": [],
      "stateMutability": "nonpayable",
      "type": "function"
    },
    {
      "inputs": [
        {
          "internalType": "uint256",
          "name": "newMinLockableKAIA",
          "type": "uint256"
        }
      ],
      "name": "changeMinLockableKAIA",
      "outputs": [],
      "stateMutability": "nonpayable",
      "type": "function"
    },
    {
      "inputs": [
        {
          "internalType": "address",
          "name": "newOperator",
          "type": "address"
        }
      ],
      "name": "changeOperator",
      "outputs": [],
      "stateMutability": "nonpayable",
      "type": "function"
    },
    {
      "inputs": [
        {
          "internalType": "bool",
          "name": "set",
          "type": "bool"
        }
      ],
      "name": "changeTransferEnable",
      "outputs": [],
      "stateMutability": "nonpayable",
      "type": "function"
    },
    {
      "inputs": [
        {
          "internalType": "uint256",
          "name": "duration",
          "type": "uint256"
        }
      ],
      "name": "changeTransferTimeLock",
      "outputs": [],
      "stateMutability": "nonpayable",
      "type": "function"
    },
    {
      "inputs": [
        {
          "internalType": "uint64",
          "name": "",
          "type": "uint64"
        }
      ],
      "name": "claimed",
      "outputs": [
        {
          "internalType": "bool",
          "name": "",
          "type": "bool"
        }
      ],
      "stateMutability": "view",
      "type": "function"
    },
    {
      "inputs": [
        {
          "internalType": "bytes",
          "name": "src",
          "type": "bytes"
        },
        {
          "internalType": "uint256",
          "name": "from",
          "type": "uint256"
        },
        {
          "internalType": "uint256",
          "name": "to",
          "type": "uint256"
        }
      ],
      "name": "copyBytes",
      "outputs": [
        {
          "internalType": "bytes",
          "name": "",
          "type": "bytes"
        }
      ],
      "stateMutability": "pure",
      "type": "function"
    },
    {
      "inputs": [
        {
          "internalType": "bytes",
          "name": "_bech",
          "type": "bytes"
        },
        {
          "internalType": "bool",
          "name": "useNormalize",
          "type": "bool"
        }
      ],
      "name": "decodeNoLimit",
      "outputs": [
        {
          "internalType": "string",
          "name": "",
          "type": "string"
        },
        {
          "internalType": "bytes",
          "name": "",
          "type": "bytes"
        }
      ],
      "stateMutability": "pure",
      "type": "function"
    },
    {
      "inputs": [
        {
          "internalType": "bytes",
          "name": "bech",
          "type": "bytes"
        }
      ],
      "name": "decodeUnsafe",
      "outputs": [
        {
          "internalType": "string",
          "name": "",
          "type": "string"
        },
        {
          "internalType": "bytes",
          "name": "",
          "type": "bytes"
        },
        {
          "internalType": "bytes",
          "name": "",
          "type": "bytes"
        }
      ],
      "stateMutability": "pure",
      "type": "function"
    },
    {
      "inputs": [
        {
          "internalType": "bytes1",
          "name": "b",
          "type": "bytes1"
        }
      ],
      "name": "findIndexByte",
      "outputs": [
        {
          "internalType": "uint256",
          "name": "",
          "type": "uint256"
        }
      ],
      "stateMutability": "pure",
      "type": "function"
    },
    {
      "inputs": [
        {
          "internalType": "bytes",
          "name": "strBytes",
          "type": "bytes"
        },
        {
          "internalType": "bytes1",
          "name": "b",
          "type": "bytes1"
        }
      ],
      "name": "findLastIndexByte",
      "outputs": [
        {
          "internalType": "int256",
          "name": "",
          "type": "int256"
        }
      ],
      "stateMutability": "pure",
      "type": "function"
    },
    {
      "inputs": [],
      "name": "getAllSwapRequests",
      "outputs": [
        {
          "components": [
            {
              "internalType": "uint64",
              "name": "seq",
              "type": "uint64"
            },
            {
              "internalType": "address",
              "name": "sender",
              "type": "address"
            },
            {
              "internalType": "string",
              "name": "receiver",
              "type": "string"
            },
            {
              "internalType": "uint256",
              "name": "amount",
              "type": "uint256"
            }
          ],
          "internalType": "struct IBridge.SwapRequest[]",
          "name": "",
          "type": "tuple[]"
        }
      ],
      "stateMutability": "view",
      "type": "function"
    },
    {
      "inputs": [],
      "name": "getClaimCandidates",
      "outputs": [
        {
          "internalType": "uint64[]",
          "name": "",
          "type": "uint64[]"
        }
      ],
      "stateMutability": "view",
      "type": "function"
    },
    {
      "inputs": [
        {
          "internalType": "uint64",
          "name": "range",
          "type": "uint64"
        }
      ],
      "name": "getClaimCandidatesRange",
      "outputs": [
        {
          "internalType": "uint64[]",
          "name": "",
          "type": "uint64[]"
        }
      ],
      "stateMutability": "view",
      "type": "function"
    },
    {
      "inputs": [],
      "name": "getClaimFailures",
      "outputs": [
        {
          "internalType": "uint64[]",
          "name": "",
          "type": "uint64[]"
        }
      ],
      "stateMutability": "view",
      "type": "function"
    },
    {
      "inputs": [
        {
          "internalType": "uint64",
          "name": "range",
          "type": "uint64"
        }
      ],
      "name": "getClaimFailuresRange",
      "outputs": [
        {
          "internalType": "uint64[]",
          "name": "",
          "type": "uint64[]"
        }
      ],
      "stateMutability": "view",
      "type": "function"
    },
    {
      "inputs": [
        {
          "internalType": "uint256",
          "name": "from",
          "type": "uint256"
        },
        {
          "internalType": "uint256",
          "name": "to",
          "type": "uint256"
        }
      ],
      "name": "getSwapRequests",
      "outputs": [
        {
          "components": [
            {
              "internalType": "uint64",
              "name": "seq",
              "type": "uint64"
            },
            {
              "internalType": "address",
              "name": "sender",
              "type": "address"
            },
            {
              "internalType": "string",
              "name": "receiver",
              "type": "string"
            },
            {
              "internalType": "uint256",
              "name": "amount",
              "type": "uint256"
            }
          ],
          "internalType": "struct IBridge.SwapRequest[]",
          "name": "",
          "type": "tuple[]"
        }
      ],
      "stateMutability": "view",
      "type": "function"
    },
    {
      "inputs": [],
      "name": "getVersion",
      "outputs": [
        {
          "internalType": "string",
          "name": "",
          "type": "string"
        }
      ],
      "stateMutability": "pure",
      "type": "function"
    },
    {
      "inputs": [],
      "name": "greatestConfirmedSeq",
      "outputs": [
        {
          "internalType": "uint256",
          "name": "",
          "type": "uint256"
        }
      ],
      "stateMutability": "view",
      "type": "function"
    },
    {
      "inputs": [],
      "name": "guardian",
      "outputs": [
        {
          "internalType": "address",
          "name": "",
          "type": "address"
        }
      ],
      "stateMutability": "view",
      "type": "function"
    },
    {
      "inputs": [
        {
          "internalType": "uint256",
          "name": "seq",
          "type": "uint256"
        }
      ],
      "name": "holdClaim",
      "outputs": [],
      "stateMutability": "nonpayable",
      "type": "function"
    },
    {
      "inputs": [
        {
          "internalType": "address",
          "name": "initOperator",
          "type": "address"
        },
        {
          "internalType": "address",
          "name": "initGuardian",
          "type": "address"
        },
        {
          "internalType": "address",
          "name": "initJudge",
          "type": "address"
        },
        {
          "internalType": "uint256",
          "name": "newMaxTryTransfer",
          "type": "uint256"
        }
      ],
      "name": "initialize",
      "outputs": [],
      "stateMutability": "nonpayable",
      "type": "function"
    },
    {
      "inputs": [
        {
          "internalType": "uint256",
          "name": "seq",
          "type": "uint256"
        }
      ],
      "name": "isPassedTimeLockDuration",
      "outputs": [
        {
          "internalType": "bool",
          "name": "",
          "type": "bool"
        }
      ],
      "stateMutability": "view",
      "type": "function"
    },
    {
      "inputs": [
        {
          "internalType": "uint64",
          "name": "seq",
          "type": "uint64"
        }
      ],
      "name": "isProvisioned",
      "outputs": [
        {
          "internalType": "bool",
          "name": "",
          "type": "bool"
        }
      ],
      "stateMutability": "view",
      "type": "function"
    },
    {
      "inputs": [
        {
          "internalType": "uint64",
          "name": "from",
          "type": "uint64"
        },
        {
          "internalType": "uint64",
          "name": "to",
          "type": "uint64"
        }
      ],
      "name": "isProvisionedRange",
      "outputs": [
        {
          "internalType": "uint64[]",
          "name": "",
          "type": "uint64[]"
        }
      ],
      "stateMutability": "view",
      "type": "function"
    },
    {
      "inputs": [],
      "name": "judge",
      "outputs": [
        {
          "internalType": "address",
          "name": "",
          "type": "address"
        }
      ],
      "stateMutability": "view",
      "type": "function"
    },
    {
      "inputs": [
        {
          "internalType": "uint256",
          "name": "",
          "type": "uint256"
        }
      ],
      "name": "locked",
      "outputs": [
        {
          "internalType": "uint64",
          "name": "seq",
          "type": "uint64"
        },
        {
          "internalType": "address",
          "name": "sender",
          "type": "address"
        },
        {
          "internalType": "string",
          "name": "receiver",
          "type": "string"
        },
        {
          "internalType": "uint256",
          "name": "amount",
          "type": "uint256"
        }
      ],
      "stateMutability": "view",
      "type": "function"
    },
    {
      "inputs": [],
      "name": "maxLockableKAIA",
      "outputs": [
        {
          "internalType": "uint256",
          "name": "",
          "type": "uint256"
        }
      ],
      "stateMutability": "view",
      "type": "function"
    },
    {
      "inputs": [],
      "name": "maxTryTransfer",
      "outputs": [
        {
          "internalType": "uint256",
          "name": "",
          "type": "uint256"
        }
      ],
      "stateMutability": "view",
      "type": "function"
    },
    {
      "inputs": [],
      "name": "minLockableKAIA",
      "outputs": [
        {
          "internalType": "uint256",
          "name": "",
          "type": "uint256"
        }
      ],
      "stateMutability": "view",
      "type": "function"
    },
    {
      "inputs": [],
      "name": "nClaimed",
      "outputs": [
        {
          "internalType": "uint256",
          "name": "",
          "type": "uint256"
        }
      ],
      "stateMutability": "view",
      "type": "function"
    },
    {
      "inputs": [],
      "name": "nProvisioned",
      "outputs": [
        {
          "internalType": "uint256",
          "name": "",
          "type": "uint256"
        }
      ],
      "stateMutability": "view",
      "type": "function"
    },
    {
      "inputs": [
        {
          "internalType": "bytes",
          "name": "bech",
          "type": "bytes"
        }
      ],
      "name": "normalize",
      "outputs": [
        {
          "internalType": "bytes",
          "name": "",
          "type": "bytes"
        }
      ],
      "stateMutability": "pure",
      "type": "function"
    },
    {
      "inputs": [],
      "name": "operator",
      "outputs": [
        {
          "internalType": "address",
          "name": "",
          "type": "address"
        }
      ],
      "stateMutability": "view",
      "type": "function"
    },
    {
      "inputs": [],
      "name": "pause",
      "outputs": [
        {
          "internalType": "bool",
          "name": "",
          "type": "bool"
        }
      ],
      "stateMutability": "view",
      "type": "function"
    },
    {
      "inputs": [
        {
          "internalType": "string",
          "name": "pauseMsg",
          "type": "string"
        }
      ],
      "name": "pauseBridge",
      "outputs": [],
      "stateMutability": "nonpayable",
      "type": "function"
    },
    {
      "inputs": [
        {
          "components": [
            {
              "internalType": "uint64",
              "name": "seq",
              "type": "uint64"
            },
            {
              "internalType": "string",
              "name": "sender",
              "type": "string"
            },
            {
              "internalType": "address",
              "name": "receiver",
              "type": "address"
            },
            {
              "internalType": "uint256",
              "name": "amount",
              "type": "uint256"
            }
          ],
          "internalType": "struct IBridge.ProvisionData",
          "name": "prov",
          "type": "tuple"
        }
      ],
      "name": "provision",
      "outputs": [],
      "stateMutability": "nonpayable",
      "type": "function"
    },
    {
      "inputs": [
        {
          "internalType": "uint64",
          "name": "",
          "type": "uint64"
        }
      ],
      "name": "provisions",
      "outputs": [
        {
          "internalType": "uint64",
          "name": "seq",
          "type": "uint64"
        },
        {
          "internalType": "string",
          "name": "sender",
          "type": "string"
        },
        {
          "internalType": "address",
          "name": "receiver",
          "type": "address"
        },
        {
          "internalType": "uint256",
          "name": "amount",
          "type": "uint256"
        }
      ],
      "stateMutability": "view",
      "type": "function"
    },
    {
      "inputs": [],
      "name": "proxiableUUID",
      "outputs": [
        {
          "internalType": "bytes32",
          "name": "",
          "type": "bytes32"
        }
      ],
      "stateMutability": "view",
      "type": "function"
    },
    {
      "inputs": [
        {
          "internalType": "uint256",
          "name": "seq",
          "type": "uint256"
        }
      ],
      "name": "releaseClaim",
      "outputs": [],
      "stateMutability": "nonpayable",
      "type": "function"
    },
    {
      "inputs": [
        {
          "internalType": "uint64",
          "name": "seq",
          "type": "uint64"
        }
      ],
      "name": "removeProvision",
      "outputs": [],
      "stateMutability": "nonpayable",
      "type": "function"
    },
    {
      "inputs": [
        {
          "internalType": "uint64",
          "name": "range",
          "type": "uint64"
        }
      ],
      "name": "requestBatchClaim",
      "outputs": [],
      "stateMutability": "nonpayable",
      "type": "function"
    },
    {
      "inputs": [
        {
          "internalType": "uint64",
          "name": "seq",
          "type": "uint64"
        }
      ],
      "name": "requestClaim",
      "outputs": [
        {
          "internalType": "bool",
          "name": "",
          "type": "bool"
        }
      ],
      "stateMutability": "nonpayable",
      "type": "function"
    },
    {
      "inputs": [
        {
          "internalType": "uint64",
          "name": "seq",
          "type": "uint64"
        },
        {
          "internalType": "address",
          "name": "newReceiver",
          "type": "address"
        }
      ],
      "name": "resolveUnclaimable",
      "outputs": [],
      "stateMutability": "nonpayable",
      "type": "function"
    },
    {
      "inputs": [
        {
          "internalType": "string",
          "name": "resumeMsg",
          "type": "string"
        }
      ],
      "name": "resumeBridge",
      "outputs": [],
      "stateMutability": "nonpayable",
      "type": "function"
    },
    {
      "inputs": [],
      "name": "seq",
      "outputs": [
        {
          "internalType": "uint64",
          "name": "",
          "type": "uint64"
        }
      ],
      "stateMutability": "view",
      "type": "function"
    },
    {
      "inputs": [
        {
          "internalType": "uint64",
          "name": "",
          "type": "uint64"
        }
      ],
      "name": "seq2BlockNum",
      "outputs": [
        {
          "internalType": "uint256",
          "name": "",
          "type": "uint256"
        }
      ],
      "stateMutability": "view",
      "type": "function"
    },
    {
      "inputs": [
        {
          "internalType": "bool",
          "name": "onOff",
          "type": "bool"
        }
      ],
      "name": "setAddrValidation",
      "outputs": [],
      "stateMutability": "nonpayable",
      "type": "function"
    },
    {
      "inputs": [
        {
          "internalType": "bytes4",
          "name": "interfaceId",
          "type": "bytes4"
        }
      ],
      "name": "supportsInterface",
      "outputs": [
        {
          "internalType": "bool",
          "name": "",
          "type": "bool"
        }
      ],
      "stateMutability": "pure",
      "type": "function"
    },
    {
      "inputs": [
        {
          "internalType": "uint256",
          "name": "",
          "type": "uint256"
        }
      ],
      "name": "timelocks",
      "outputs": [
        {
          "internalType": "uint256",
          "name": "",
          "type": "uint256"
        }
      ],
      "stateMutability": "view",
      "type": "function"
    },
    {
      "inputs": [
        {
          "internalType": "string",
          "name": "receiver",
          "type": "string"
        }
      ],
      "name": "transfer",
      "outputs": [],
      "stateMutability": "payable",
      "type": "function"
    },
    {
      "inputs": [
        {
          "internalType": "uint256",
          "name": "",
          "type": "uint256"
        }
      ],
      "name": "transferFail",
      "outputs": [
        {
          "internalType": "uint256",
          "name": "",
          "type": "uint256"
        }
      ],
      "stateMutability": "view",
      "type": "function"
    },
    {
      "inputs": [],
      "name": "transferFromKaiaOn",
      "outputs": [
        {
          "internalType": "bool",
          "name": "",
          "type": "bool"
        }
      ],
      "stateMutability": "view",
      "type": "function"
    },
    {
      "inputs": [
        {
          "internalType": "address",
          "name": "newImplementation",
          "type": "address"
        },
        {
          "internalType": "bytes",
          "name": "data",
          "type": "bytes"
        }
      ],
      "name": "upgradeToAndCall",
      "outputs": [],
      "stateMutability": "payable",
      "type": "function"
    },
    {
      "inputs": [
        {
          "internalType": "string",
          "name": "addr",
          "type": "string"
        },
        {
          "internalType": "bool",
          "name": "useNormalize",
          "type": "bool"
        }
      ],
      "name": "verifyAddrFNSA",
      "outputs": [
        {
          "internalType": "bool",
          "name": "",
          "type": "bool"
        }
      ],
      "stateMutability": "pure",
      "type": "function"
    },
    {
      "inputs": [
        {
          "internalType": "string",
          "name": "hrp",
          "type": "string"
        },
        {
          "internalType": "bytes",
          "name": "values",
          "type": "bytes"
        },
        {
          "internalType": "bytes",
          "name": "checksum",
          "type": "bytes"
        }
      ],
      "name": "verifyChecksum",
      "outputs": [
        {
          "internalType": "bool",
          "name": "",
          "type": "bool"
        }
      ],
      "stateMutability": "pure",
      "type": "function"
    },
    {
      "inputs": [
        {
          "internalType": "string",
          "name": "hrp",
          "type": "string"
        },
        {
          "internalType": "bytes",
          "name": "data",
          "type": "bytes"
        }
      ],
      "name": "writeBech32Checksum",
      "outputs": [
        {
          "internalType": "bytes",
          "name": "",
          "type": "bytes"
        }
      ],
      "stateMutability": "pure",
      "type": "function"
    },
    {
      "stateMutability": "payable",
      "type": "receive"
    }
  ],
  "bytecode": "0x60a0604052346200004257306080526200001862000047565b6200002262000047565b604051615d0d9081620000e7823960805181818161217401526122370152f35b600080fd5b7ff0c57e16840df040f15088dc2f81fe391c3923bec73e23a9662efc9c229c6a00805460ff8160401c16620000d4576001600160401b036002600160401b0319828216016200009557505050565b6001600160401b031990911681179091556040519081527fc7f505b2f371ae2175ee4913f4499e1f2633a7b5936321eed1cdaeb6115181d290602090a1565b60405163f92ee8a960e01b8152600490fdfe608060409080825260049081361015610050575b5050361561002057600080fd5b807fe9ff06928457f217f1eb646829c843fb5f899852b604f31d4250b5c3335415139151338152346020820152a1005b600091823560e01c91826301ffc9a7146137445750816306394c9b14613692578163084419b11461365a57816309e19a261461361c5781630b6b5bfa146135f95781630d7e149f146135d05781630d8e6e2c14613573578163177a15551461346c5781631919b0c814612fbe57816319ab4e3a14612f9f578163206eb38414612f3d5781632a10e77714612eab5781632ce434e914612d965781632dee173414612b075781632fcb4f0414612a765781633939087414612a4d5781633b0d01e814612a0c5781633d1153e0146126065781633e72c67c14612591578163430b239f1461254c578163452a9320146125175781634ccc33bb146124ad5781634f1ef286146121e957816352d1902d1461214a578163539135dd14612004578163570ca73514611fce578163573255f414611f9957816357fc42b114611f155781635e5b60db14611ebd5781635efac2ec14611e9e57816361a5a87114611e395781636857ab4014611e10578163700c69b414611c8a578163700fc4f7146119af578163704392d7146119345781637202be131461191557816373297448146118f35781637a51dd5b1461188e5781637d1e66561461186557816382d90251146118005781638456cb59146117dc57816387d55377146117bd5781638c5197ce146117725781639369ccd71461165f5781639e8da54314611622578163a0258d0b1461105d578163a34c853d14610ff8578163a8bde4eb14610f86578163ad3cb1cc14610f29578163b45a3c0e14610e8f578163bdaa26d514610e1e578163cbbde10514610db9578163ce39fe2014610d2f578163cefcab8a14610b9d578163cf756fdf14610778578163d67806b814610754578163d75bf506146106bc578163dafa2f8d1461061b578163e0caf57814610585578163e9a24feb14610547578163ea3776de1461047a578163eba24d1f146103f6578163ed0d38f61461039657508063fa2f49b414610377578063fc0d4506146103585763fe87b162146103365780610013565b90346103545781600319360112610354576020906009549051908152f35b5080fd5b509034610354578160031936011261035457602090600b549051908152f35b5090346103545781600319360112610354576020906005549051908152f35b8383346103f35760606003193601126103f35782359067ffffffffffffffff82116103f357506103cf6103ef936103dc92369101613953565b604435906024359061516d565b9051918291602083526020830190613994565b0390f35b80fd5b5050346103f35760206003193601126103f3575067ffffffffffffffff908161041d6137f3565b1690601554808311610472575b5061043482614dc7565b9160005b81811061044c578251806103ef8682613b2a565b808561045960019361590d565b90549060031b1c1661046b8287614ab2565b5201610438565b91503861042a565b839150346105435760206003193601126105435780359067ffffffffffffffff821161053f576104ac91369101613afc565b80926104d173ffffffffffffffffffffffffffffffffffffffff600154163314613d04565b60017fffffffffffffffffffffffffffffffffffffffffffffffffffffffffffffff00600d5461050460ff821615613e8e565b1617600d555192839283378101600081520390207f4910e8e9025e52d5703324eb19309bd2d57c1be1054424a68511f84e62abe4f48280a280f35b8380fd5b8280fd5b8383346103f35760206003193601126103f35782359067ffffffffffffffff82116103f357506105806103ef936103dc92369101613953565b614e0c565b82346103f35760206003193601126103f35761059f6137ad565b7fffffffffffffffffffffffff000000000000000000000000000000000000000073ffffffffffffffffffffffffffffffffffffffff916105e583600154163314613d04565b826002549116809382167f142fbcfec942039c17c5d1a7100495fe199b0cc6f71f8665252070aec287a94c8680a3161760025580f35b828434610354576020600319360112610354577fffffffffffffffffffffffffffffffffffffffffffffffffffffffffffffff0060ff610659613aed565b61067c73ffffffffffffffffffffffffffffffffffffffff600154163314613d04565b600a549351901515908181527fe9e2eec3b99b1c516c9add9eb68b22aaafcf8eae59243986f20cb294e017445b6020848716151592a216911617600a5580f35b82346103f35760206003193601126103f3576106d6613aed565b6106f973ffffffffffffffffffffffffffffffffffffffff600154163314613d04565b7fffffffffffffffffffffffffffffffffffffffffffffffffffffffffffffff0060ff83549215158082851615157f3eada64629927ae1a1a4b98aa7d4a80f7cf222636dd147045164c72b8c45a8708780a316911617815580f35b82843461035457816003193601126103545760209060ff600a541690519015158152f35b83915034610543576080600319360112610543576107946137ad565b9161079d6137d0565b906044359173ffffffffffffffffffffffffffffffffffffffff90818416809403610b98577ff0c57e16840df040f15088dc2f81fe391c3923bec73e23a9662efc9c229c6a009586549460ff86861c16159367ffffffffffffffff871696871580610b91575b60018099149081610b87575b159081610b7e575b50610b56577fffffffffffffffffffffffffffffffffffffffffffffffff0000000000000000908689838316178c55610b21575b508651987f01ffc9a7000000000000000000000000000000000000000000000000000000008a527fac519b4a00000000000000000000000000000000000000000000000000000000818b01526020998a81602481878a165afa908115610b17578d91610add575b5015610a35579174ffffffffffffffffffffffffffffffffffffffff0093918c7fffffffffffffffffffffff00000000000000000000000000000000000000000096946108fd61587d565b61090561587d565b8b7f9b779b17422d0df92223018b32b4d1fa46e071723d6817e2486d003becc55f005581600355557fffffffffffffffffffffffff000000000000000000000000000000000000000092836002541617600255897fffffffffffffffffffffffffffffffffffffffffffffffffffffffffffffff00918183600a541617600a55678ac7230489e800006006556a084595161401484a000000600755600854161760085560643560095562093a80600b55600d5416600d558b5495169088541617875560081b1691161786556109d861587d565b6109e0578480f35b837fffffffffffffffffffffffffffffffffffffffffffffff00ffffffffffffffff7fc7f505b2f371ae2175ee4913f4499e1f2633a7b5936321eed1cdaeb6115181d2955416905551908152a1818080808480f35b60a4908a8951917f08c379a0000000000000000000000000000000000000000000000000000000008352820152604560248201527f4b4149413a3a427269646765723a204f70657261746f7220636f6e747261637460448201527f206164647265737320646f6573206e6f7420696d706c656d656e7420494f706560648201527f7261746f720000000000000000000000000000000000000000000000000000006084820152fd5b90508a81813d8311610b10575b610af481836138a1565b81010312610b0c57518015158103610b0c578d6108b2565b8c80fd5b503d610aea565b89513d8f823e3d90fd5b7fffffffffffffffffffffffffffffffffffffffffffffff0000000000000000001668010000000000000001178a558b61084b565b8887517ff92ee8a9000000000000000000000000000000000000000000000000000000008152fd5b9050158c610817565b303b15915061080f565b5085610803565b600080fd5b919050346103f357826003193601126103f357610bb86137f3565b9267ffffffffffffffff9260243584811690818103610b98579085871615610d26575b9085918354809111610ce4575b501691848616830391858311610cb6575084610c0681869416614dc7565b965b81811685811015610c665790600191610c3b8267ffffffffffffffff809116600052600f60205260406000205416151590565b610c4a575b5001168590610c08565b610c5f84610c5788613ffd565b97168b614ab2565b5238610c40565b505091909392501693610c7885614dc7565b915b84811686811015610ca957859181610ca184610c9860019588614ab2565b51169187614ab2565b520116610c7a565b8451806103ef8682613b2a565b6011907f4e487b71000000000000000000000000000000000000000000000000000000006000525260246000fd5b60019291501601848111610cfa57849038610be8565b6024846011847f4e487b7100000000000000000000000000000000000000000000000000000000835252fd5b60019650610bdb565b5050346103f357806003193601126103f357600e54610d4d81614a9a565b91610d5a845193846138a1565b818352600e815260207fbb7b4a454dc3493923482f07822329ed19e8244eff582cc204f8554c3620c3fd8185015b848410610d9c578651806103ef8882613bc4565b600383600192610dab85614ac6565b815201920193019290610d88565b9050346103545760206003193601126103545735610df073ffffffffffffffffffffffffffffffffffffffff600154163314613d04565b806006547f1b7f0deea9ea187dce54b4b235a1adf4bf2cbf51ecf5e8ac20547105c8a052be8480a360065580f35b83915034610543578160031936011261054357803567ffffffffffffffff811161053f57610e4e91369101613953565b90602435917fff0000000000000000000000000000000000000000000000000000000000000083168303610b9857602092610e8891614d1a565b9051908152f35b83915034610543576020600319360112610543573591600e548310156103f35750610ece73ffffffffffffffffffffffffffffffffffffffff92613c9a565b5090610f1f82549260806002845192610ef584610eee8160018501613a2a565b03856138a1565b0154938051968667ffffffffffffffff8998168852821c1660208701528501526080840190613994565b9060608301520390f35b82843461035457816003193601126103545780516103ef91610f4a82613885565b600582527f352e302e30000000000000000000000000000000000000000000000000000000602083015251918291602083526020830190613994565b8293915034610ff4576020600319360112610ff4573590610fc073ffffffffffffffffffffffffffffffffffffffff600154163314613d04565b818352600c60205242908320557f468a3507d22268fb97a9d268b3784814440c7d66c8b3ad80eff0961048a722888280a380f35b5050fd5b5050346103f357806003193601126103f3575060155461101781614dc7565b9060005b81811061102f578351806103ef8582613b2a565b8067ffffffffffffffff61104460019361590d565b90549060031b1c166110568286614ab2565b520161101b565b83915060208060031936011261053f5767ffffffffffffffff92823584811161161e5761108d9036908501613afc565b9093611097615823565b6110a660ff600d541615613e8e565b60ff8754161561159c5760ff600a5416611503575b60065434106114815760075434116113ff57856008541687526012845243838820556008549561113781881696826110f289613ffd565b167fffffffffffffffffffffffffffffffffffffffffffffffff0000000000000000809a16176008558551976111278961380a565b885286880194338652369161391c565b908487019182526060870192348452600e5498680100000000000000008a10156113d35761116c60019a8b8101600e55613c9a565b9690966113a8578951875491517fffffffff00000000000000000000000000000000000000000000000000000000929092169085161790881b7bffffffffffffffffffffffffffffffffffffffff0000000000000000161786555091518051898601939092831161137c57506111ec826111e685546139d7565b85613f95565b86908a601f84116001146112af57836002947f58c20180b91b98e6e0c214ab2ed6428ba657677b8da73f1213e4fdb9dce208f39b9a99979461127c99979461126694926112a4575b50507fffffffffffffffffffffffffffffffffffffffffffffffffffffffffffffffff8260011b9260031b1c19161790565b90555b5191015551928284938452830190613b70565b0390a17f9b779b17422d0df92223018b32b4d1fa46e071723d6817e2486d003becc55f005580f35b015190508e80611234565b5082917fffffffffffffffffffffffffffffffffffffffffffffffffffffffffffffffe08b941691858d52898d20928d5b8181106113655750926002959285927f58c20180b91b98e6e0c214ab2ed6428ba657677b8da73f1213e4fdb9dce208f39d9c9b999661127c9b99961061132e575b505050811b019055611269565b01517fffffffffffffffffffffffffffffffffffffffffffffffffffffffffffffffff60f88460031b161c191690558d8080611321565b8284015185558d9690940193928b01928b016112e0565b8a60416024927f4e487b7100000000000000000000000000000000000000000000000000000000835252fd5b60248c80857f4e487b7100000000000000000000000000000000000000000000000000000000825252fd5b60248b6041847f4e487b7100000000000000000000000000000000000000000000000000000000835252fd5b608490848451917f08c379a0000000000000000000000000000000000000000000000000000000008352820152603360248201527f4b4149413a3a4272696467653a204c6f636b6564204b414941206d757374206260448201527f65206c657373207468616e206d6178696d756d000000000000000000000000006064820152fd5b608490848451917f08c379a0000000000000000000000000000000000000000000000000000000008352820152603560248201527f4b4149413a3a4272696467653a204c6f636b6564204b414941206d757374206260448201527f65206c6172676572207468616e206d696e696d756d00000000000000000000006064820152fd5b61151661151136848861391c565b61440f565b6110bb57608490848451917f08c379a0000000000000000000000000000000000000000000000000000000008352820152602960248201527f4b4149413a3a4272696467653a2052656365697665722061646472657373206960448201527f7320696e76616c696400000000000000000000000000000000000000000000006064820152fd5b608490848451917f08c379a0000000000000000000000000000000000000000000000000000000008352820152603060248201527f4b4149413a3a4272696467653a205377617020726571657573742066726f6d2060448201527f4b4149412069732064697361626c6564000000000000000000000000000000006064820152fd5b8580fd5b8284346103545760206003193601126103545760ff8160209367ffffffffffffffff61164c6137f3565b1681526010855220541690519015158152f35b839150346105435760209160031991838336011261176e5767ffffffffffffffff908035828111611762576116979036908301613afc565b87606086959395516116a88161380a565b828152818a8201528288820152015280831161176a578301928686828603011261176a57828101358281116117665760809101958685030112611762578351966116f18861380a565b828601358281168103610b9857885260248601359182116103f357509061171b9291850101613953565b83850152604482013573ffffffffffffffffffffffffffffffffffffffff81168103610b98576103ef92606491838701520135606085015251928284938452830190613c46565b8680fd5b8880fd5b8780fd5b8480fd5b919050346103f35760206003193601126103f3575035907fff0000000000000000000000000000000000000000000000000000000000000082168203610b9857610e88602092614b48565b8284346103545781600319360112610354576020906003549051908152f35b82843461035457816003193601126103545760209060ff600d541690519015158152f35b905034610354576020600319360112610354573561183773ffffffffffffffffffffffffffffffffffffffff600154163314613d04565b806009547f7303d056c6d5243d142101fd24eab0d078178b99257ec851a358091fac65bd5f8480a360095580f35b8383346103f35760206003193601126103f3575061188560209235614b26565b90519015158152f35b5050346103f357806003193601126103f357506013546118ad81614dc7565b9060005b8181106118c5578351806103ef8582613b2a565b8067ffffffffffffffff6118da6001936158d6565b90549060031b1c166118ec8286614ab2565b52016118b1565b82843461035457816003193601126103545760ff602092541690519015158152f35b8391503461054357826003193601126105435760209250549051908152f35b8383346103f35760606003193601126103f35767ffffffffffffffff928035848111610543576119679036908301613953565b9360243581811161053f5761197f9036908401613953565b926044359182116103f35750936001926119a16119a793602097369101613953565b91615389565b149051908152f35b9050823461054357602092836003193601126103f3576119cd6137f3565b926119fa6119f58567ffffffffffffffff809116600052600f60205260406000205416151590565b614045565b611a1d60ff8467ffffffffffffffff8097169485815260108952205416156140dd565b611a2e611a2983614b26565b61418e565b81600052600f85528260002093835190611a478261380a565b85541681526001948451611a6881611a61818a8601613a2a565b03826138a1565b8783015273ffffffffffffffffffffffffffffffffffffffff6003816002840154169287850193845201549160608401928352611aa3615823565b82514710611c0857600080938193829351169051905a8b1cf1611ac461526d565b5015611b8657611b007f177b6046feaa5ac9793d715b69a9056ccd504da33d2f1f5d5588dfa654ddfa1991855191829189835289830190613c46565b0390a1837f9b779b17422d0df92223018b32b4d1fa46e071723d6817e2486d003becc55f0055816000526010855282600020847fffffffffffffffffffffffffffffffffffffffffffffffffffffffffffffff0082541617905560055490848201809211610cb65750600555611b7f90611b7981615a4a565b50615b70565b5051908152f35b608482878651917f08c379a0000000000000000000000000000000000000000000000000000000008352820152603460248201527f4b4149413a3a4272696467653a204661696c656420746f207472616e7366657260448201527f20616d6f756e74206f662070726f766973696f6e0000000000000000000000006064820152fd5b6084858a8951917f08c379a0000000000000000000000000000000000000000000000000000000008352820152603460248201527f4b4149413a3a506f6f6c3a20506f6f6c27732062616c616e6365206973206e6f60448201527f7420656e6f75676820746f207472616e736665720000000000000000000000006064820152fd5b82843461035457806003193601126103545782356024359381851115611d8d5750600e54808511611d85575b50611cc181856140d0565b927fffffffffffffffffffffffffffffffffffffffffffffffffffffffffffffffe0611d04611cef86614a9a565b95611cfc865197886138a1565b808752614a9a565b0190805b828110611d58575050505b838110611d27578151806103ef8582613bc4565b80611d3c611d36600193613c9a565b50614ac6565b611d468286614ab2565b52611d518185614ab2565b5001611d13565b6020908551611d668161380a565b838152828481830152846060808a850152830152828901015201611d08565b935084611cb6565b60849060208451917f08c379a0000000000000000000000000000000000000000000000000000000008352820152602160248201527f4b4149413a3a4272696467653a20496e76616c69642066726f6d20616e64207460448201527f6f000000000000000000000000000000000000000000000000000000000000006064820152fd5b82843461035457816003193601126103545760209067ffffffffffffffff600854169051908152f35b9050346103545760206003193601126103545735611e7073ffffffffffffffffffffffffffffffffffffffff600154163314613d04565b806006547fad8ec639c14eab82be945c7ae5c060174fb853d9cda596a194558f77fc5e3d758480a360075580f35b8284346103545781600319360112610354576020906007549051908152f35b8391503461054357816003193601126105435767ffffffffffffffff813581811161176e57611eef9036908401613953565b936024359182116103f3575092611f0f6103dc926103ef95369101613953565b90614722565b5050346103f35760206003193601126103f3575067ffffffffffffffff9081611f3c6137f3565b1690601354808311611f91575b50611f5382614dc7565b9160005b818110611f6b578251806103ef8682613b2a565b8085611f786001936158d6565b90549060031b1c16611f8a8287614ab2565b5201611f57565b915038611f49565b82843461035457816003193601126103545760209073ffffffffffffffffffffffffffffffffffffffff600254169051908152f35b82843461035457816003193601126103545773ffffffffffffffffffffffffffffffffffffffff6020925460081c169051908152f35b8391503461054357602060031936011261054357803567ffffffffffffffff811161053f576120369036908301613afc565b92909161205c73ffffffffffffffffffffffffffffffffffffffff600154163314613d04565b600d549060ff8216156120c757507fffffffffffffffffffffffffffffffffffffffffffffffffffffffffffffff0016600d5551918291819083378101600081520390207f4491215d33ff44cbbe5abce58bc65efb225a681d5757be893e336bf1d652d6af8280a280f35b60849060208451917f08c379a0000000000000000000000000000000000000000000000000000000008352820152602860248201527f4b4149413a3a4272696467653a2042726964676520686173206e6f742062656560448201527f6e207061757365640000000000000000000000000000000000000000000000006064820152fd5b8383346103f357806003193601126103f3575073ffffffffffffffffffffffffffffffffffffffff7f00000000000000000000000000000000000000000000000000000000000000001630036121c357602090517f360894a13ba1a3210667c828492db98dca3e2076cc3735a920a3ca505d382bbc8152f35b517fe07c8dba000000000000000000000000000000000000000000000000000000008152fd5b90508280600319360112610543576121ff6137ad565b9060243567ffffffffffffffff811161176e5761221f9036908501613953565b73ffffffffffffffffffffffffffffffffffffffff807f00000000000000000000000000000000000000000000000000000000000000001680301490811561247f575b506124575761227681600154163314613d04565b83169282517f52d1902d0000000000000000000000000000000000000000000000000000000081526020818781885afa879181612423575b506122e257602486868651917f4c9c8ce3000000000000000000000000000000000000000000000000000000008352820152fd5b84879487927f360894a13ba1a3210667c828492db98dca3e2076cc3735a920a3ca505d382bbc908181036123f45750843b156123c55780547fffffffffffffffffffffffff00000000000000000000000000000000000000001683179055518592917fbc7cd75a20ee27fd9adebab32041f755214dbc6bffa90cc0225b39da2e5c2d3b8480a28451156123915750508083602061238d95519101845af461238761526d565b91615c37565b5080f35b9250925050346123a057505080f35b7fb398979f000000000000000000000000000000000000000000000000000000008152fd5b506024935051917f4c9c8ce3000000000000000000000000000000000000000000000000000000008352820152fd5b846024918451917faa1d49a4000000000000000000000000000000000000000000000000000000008352820152fd5b9091506020813d60201161244f575b8161243f602093836138a1565b8101031261176a575190886122ae565b3d9150612432565b8483517fe07c8dba000000000000000000000000000000000000000000000000000000008152fd5b9050817f360894a13ba1a3210667c828492db98dca3e2076cc3735a920a3ca505d382bbc5416141587612262565b8383346103f357816003193601126103f35782359067ffffffffffffffff82116103f357506124e56103ef936124f392369101613953565b6124ed613ade565b906145fc565b6125098394929451948486958652850190613994565b908382036020850152613994565b82843461035457816003193601126103545760209073ffffffffffffffffffffffffffffffffffffffff600154169051908152f35b8383346103f357816003193601126103f35782359067ffffffffffffffff82116103f3575061258360209361188592369101613953565b61258b613ade565b906145b3565b919050346103f35760206003193601126103f35781359067ffffffffffffffff82116103f3576125eb6125f96103ef866125d56125d036888a01613953565b614219565b9194908351968796606088526060880190613994565b908682036020880152613994565b9184830390850152613994565b9050346103545782600319360112610354576126206137f3565b6126286137d0565b9173ffffffffffffffffffffffffffffffffffffffff9261264e84600154163314613d04565b6126756119f58467ffffffffffffffff809116600052600f60205260406000205416151590565b67ffffffffffffffff809316938486526020936010855261269c60ff8989205416156140dd565b6126a8611a2987614b26565b856000526014855287600020541561298a5763ffffffff833b16612908579060038795949392878752600f865289872090600282018b7fffffffffffffffffffffffff0000000000000000000000000000000000000000868354981697888093519c7fa134134b227383c3e6d7eca491d135fe89377ef62d74a6b45cdf320ab6f584ed8a84169180a31617905561273e8861380a565b8154168752895161275681611a618160018601613a2a565b8688015289870193845201549160608601928352612772615823565b8251471061288657600080938193829351169051905a60011cf161279461526d565b50156128055750907f177b6046feaa5ac9793d715b69a9056ccd504da33d2f1f5d5588dfa654ddfa19916127d561238d959651928284938452830190613c46565b0390a160017f9b779b17422d0df92223018b32b4d1fa46e071723d6817e2486d003becc55f0055611b7981615a4a565b6084918651917f08c379a0000000000000000000000000000000000000000000000000000000008352820152603460248201527f4b4149413a3a4272696467653a204661696c656420746f207472616e7366657260448201527f20616d6f756e74206f662070726f766973696f6e0000000000000000000000006064820152fd5b608484868b51917f08c379a0000000000000000000000000000000000000000000000000000000008352820152603460248201527f4b4149413a3a506f6f6c3a20506f6f6c27732062616c616e6365206973206e6f60448201527f7420656e6f75676820746f207472616e736665720000000000000000000000006064820152fd5b608484868a51917f08c379a0000000000000000000000000000000000000000000000000000000008352820152603660248201527f4b4149413a3a4272696467653a206e65775265636569766572206d757374206e60448201527f6f7420626520636f6e74726163742061646472657373000000000000000000006064820152fd5b608484868a51917f08c379a0000000000000000000000000000000000000000000000000000000008352820152602a60248201527f4b4149413a3a4272696467653a204d75737420626520696e20636c61696d206660448201527f61696c75726520736574000000000000000000000000000000000000000000006064820152fd5b82843461035457602060031936011261035457602090611885612a2d6137f3565b67ffffffffffffffff809116600052600f60205260406000205416151590565b839150346105435760206003193601126105435760209282913581526011845220549051908152f35b82346103f35760206003193601126103f357612a906137ad565b7fffffffffffffffffffffffff000000000000000000000000000000000000000060015473ffffffffffffffffffffffffffffffffffffffff80821693612ad8338614613d04565b1680937f61f3b62edd586d41117ebcc75bd4eae39389085250e64cf6295fb57bac22c1e78680a3161760015580f35b905034610354576020928360031936011261054357612b246137f3565b9173ffffffffffffffffffffffffffffffffffffffff612b4981600154163314613d04565b612b706119f58567ffffffffffffffff809116600052600f60205260406000205416151590565b67ffffffffffffffff80941693848652600c8752428487205582547fffffffffffffffffffffffffffffffffffffffffffffffffffffffffffffffff90818101908111612d6a5784558501818111612d3c5786977f1d1da9bc58e89b30029e7edaca4296b7d464295a50800349a3e3568577b32cd6836000946003941680855410612d34575b50612c0089615a4a565b50612c0a89615b70565b50888a52601183528988812055600f8352878a209088519182918583528154168583015260808a83015285612c4560a0840160018401613a2a565b91896002820154166060850152015460808301520390a1868852600f815287868120918183556001830190612c7a82546139d7565b9081612cf5575b50505060028201550155845460081c1692833b1561176e576024859283855196879485937f7e5d94110000000000000000000000000000000000000000000000000000000085528401525af1908115612cec5750612cdc5750f35b612ce590613855565b6103f35780f35b513d84823e3d90fd5b601f8211600114612d10575050849150555b87388080612c81565b8284528320918691612d2d90601f0160051c840160018501613f7e565b5555612d07565b845538612bf6565b6011847f4e487b71000000000000000000000000000000000000000000000000000000006000525260246000fd5b6024886011877f4e487b7100000000000000000000000000000000000000000000000000000000835252fd5b839150346105435760208060031936011261053f5767ffffffffffffffff9283612dbe6137f3565b1692601590601554808611612ea3575b508693875b8688821610612de0578880f35b8786168454811015612e475788612e1e91866000527f55f448fdea98c4d29eb340757ef0a66cd03dbb9538908a6a81d96026b71ec4750154166151eb565b15612e32575b612e2d90613ffd565b612dd3565b94612e3f612e2d91613ffd565b959050612e24565b606484848851917f08c379a0000000000000000000000000000000000000000000000000000000008352820152601360248201527f496e646578206f7574206f6620626f756e6473000000000000000000000000006044820152fd5b945087612dce565b828434610354576020600319360112610354578067ffffffffffffffff9283612ed26137f3565b168152600f602052209182541690805192612ef484610eee8160018501613a2a565b600373ffffffffffffffffffffffffffffffffffffffff60028301541691015490612f3083519586958652608060208701526080860190613994565b9284015260608301520390f35b9050346103545760206003193601126103545735612f7473ffffffffffffffffffffffffffffffffffffffff600154163314613d04565b80600b557f4dc47f4cf5973a6141e21dcf6b5e81815e47a823fa0d8321c8e857485adc231a8280a280f35b8284346103545781600319360112610354576020906006549051908152f35b9050823461054357602060031990808236011261176e5767ffffffffffffffff9084358281116117625760808187019482360301126117625773ffffffffffffffffffffffffffffffffffffffff92875484339160081c16036134105761302a60ff600d541615613e8e565b61303385613f18565b6130578167ffffffffffffffff809116600052600f60205260406000205416151590565b61338e57811694858952600f84528689208261307283613f18565b167fffffffffffffffffffffffffffffffffffffffffffffffff0000000000000000825416178155600192600182019060248601946130b18686613f2d565b928311613362576130cc836130c686546139d7565b86613f95565b8d8092601f85116001146132bb57506003989796959493613120939092836132b05750507fffffffffffffffffffffffffffffffffffffffffffffffffffffffffffffffff8260011b9260031b1c19161790565b90555b6064600282019460448101958961313988613fdc565b167fffffffffffffffffffffffff00000000000000000000000000000000000000008254161790550135948591015588546001810180911161327b57895586600354106132a7575b600b54420180421161327b57956131e3936131fa6131db8398957feaafa88e429e778603ec9aff8a1834097dc88ea1d628bb01dc4e24a2738fc61298958f9c9b8e8e8e8152600c8b5220556131d58c615944565b50613f2d565b969092613fdc565b918b51966131f08861380a565b8a8852369161391c565b848601521688840152606083015261321b8751928284938452830190613c46565b0390a1825460081c1693843b156105435760249083855196879485937f8a8f09a50000000000000000000000000000000000000000000000000000000085528401525af1908115612cec575061326f575080f35b61327890613855565b80f35b60248b60118c7f4e487b7100000000000000000000000000000000000000000000000000000000835252fd5b86600355613181565b013590508f80611234565b8582528a822093917fffffffffffffffffffffffffffffffffffffffffffffffffffffffffffffffe08616915b8c83831061334b5750505091600193918560039b9a999897969410613315575b505050811b019055613123565b01357fffffffffffffffffffffffffffffffffffffffffffffffffffffffffffffffff838b1b60f8161c191690558e8080613308565b8185978293949688013581550196019301906132e8565b60248e60418f7f4e487b7100000000000000000000000000000000000000000000000000000000835252fd5b608488858951917f08c379a0000000000000000000000000000000000000000000000000000000008352820152602e60248201527f4b4149413a3a4272696467653a20412070726f766973696f6e2077617320737560448201527f626d6974746564206265666f72650000000000000000000000000000000000006064820152fd5b606487848851917f08c379a0000000000000000000000000000000000000000000000000000000008352820152601d60248201527f4b4149413a3a4272696467653a204e6f7420616e206f70657261746f720000006044820152fd5b839150346105435760206003193601126105435780359073ffffffffffffffffffffffffffffffffffffffff6002541633036135165767ffffffffffffffff92834201918242116134ea5750828552600c6020528420557f06dfd90492bb157da142b740963e167c0d4b56c79c1449a0c70f63d8ac8bb5748380a380f35b8560116024927f4e487b7100000000000000000000000000000000000000000000000000000000835252fd5b60649060208451917f08c379a0000000000000000000000000000000000000000000000000000000008352820152601a60248201527f4b4149413a3a4272696467653a204e6f7420616e206a756467650000000000006044820152fd5b82843461035457816003193601126103545780516103ef9161359482613885565b600582527f302e302e31000000000000000000000000000000000000000000000000000000602083015251918291602083526020830190613994565b83915034610543576020600319360112610543576020928291358152600c845220549051908152f35b82843461035457816003193601126103545760209051678ac7230489e800008152f35b8383346103f35760206003193601126103f35782359067ffffffffffffffff82116103f357506136556103ef936103dc92369101613953565b613d7a565b828434610354576020600319360112610354578060209267ffffffffffffffff6136826137f3565b1681526012845220549051908152f35b82346103f35760206003193601126103f3576136ac6137ad565b7fffffffffffffffffffffff0000000000000000000000000000000000000000ff74ffffffffffffffffffffffffffffffffffffffff0073ffffffffffffffffffffffffffffffffffffffff9261370884600154163314613d04565b845493808216908560081c167f43ecbc1bb0a9bebbcadca5bdaedc649040adb65597772899e25403afb28b67948780a360081b16911617815580f35b9150346105435760206003193601126105435735917fffffffff0000000000000000000000000000000000000000000000000000000083168093036103f357507f8e47a03600000000000000000000000000000000000000000000000000000000602092148152f35b6004359073ffffffffffffffffffffffffffffffffffffffff82168203610b9857565b6024359073ffffffffffffffffffffffffffffffffffffffff82168203610b9857565b6004359067ffffffffffffffff82168203610b9857565b6080810190811067ffffffffffffffff82111761382657604052565b7f4e487b7100000000000000000000000000000000000000000000000000000000600052604160045260246000fd5b67ffffffffffffffff811161382657604052565b60a0810190811067ffffffffffffffff82111761382657604052565b6040810190811067ffffffffffffffff82111761382657604052565b90601f7fffffffffffffffffffffffffffffffffffffffffffffffffffffffffffffffe0910116810190811067ffffffffffffffff82111761382657604052565b67ffffffffffffffff811161382657601f017fffffffffffffffffffffffffffffffffffffffffffffffffffffffffffffffe01660200190565b929192613928826138e2565b9161393660405193846138a1565b829481845281830111610b98578281602093846000960137010152565b9080601f83011215610b985781602061396e9335910161391c565b90565b60005b8381106139845750506000910152565b8181015183820152602001613974565b907fffffffffffffffffffffffffffffffffffffffffffffffffffffffffffffffe0601f6020936139d081518092818752878088019101613971565b0116010190565b90600182811c92168015613a20575b60208310146139f157565b7f4e487b7100000000000000000000000000000000000000000000000000000000600052602260045260246000fd5b91607f16916139e6565b805460009392613a39826139d7565b91828252602093600191600181169081600014613aa15750600114613a60575b5050505050565b90939495506000929192528360002092846000945b838610613a8d57505050500101903880808080613a59565b805485870183015294019385908201613a75565b7fffffffffffffffffffffffffffffffffffffffffffffffffffffffffffffff00168685015250505090151560051b010191503880808080613a59565b602435908115158203610b9857565b600435908115158203610b9857565b9181601f84011215610b985782359167ffffffffffffffff8311610b985760208381860195010111610b9857565b602090602060408183019282815285518094520193019160005b828110613b52575050505090565b835167ffffffffffffffff1685529381019392810192600101613b44565b9067ffffffffffffffff825116815273ffffffffffffffffffffffffffffffffffffffff6020830151166020820152606080613bbb6040850151608060408601526080850190613994565b93015191015290565b6020808201906020835283518092526040830192602060408460051b8301019501936000915b848310613bfa5750505050505090565b9091929394958480613c36837fffffffffffffffffffffffffffffffffffffffffffffffffffffffffffffffc086600196030187528a51613b70565b9801930193019194939290613bea565b9067ffffffffffffffff8251168152606080613c716020850151608060208601526080850190613994565b9373ffffffffffffffffffffffffffffffffffffffff6040820151166040850152015191015290565b600e54811015613cd557600390600e600052027fbb7b4a454dc3493923482f07822329ed19e8244eff582cc204f8554c3620c3fd0190600090565b7f4e487b7100000000000000000000000000000000000000000000000000000000600052603260045260246000fd5b15613d0b57565b60646040517f08c379a000000000000000000000000000000000000000000000000000000000815260206004820152601d60248201527f4b4149413a3a4272696467653a204e6f7420616e20677561726469616e0000006044820152fd5b908151811015613cd5570160200190565b9060009160005b8151811015613e89577fff000000000000000000000000000000000000000000000000000000000000007f410000000000000000000000000000000000000000000000000000000000000081613dd78486613d69565b5116101580613e53575b613def575b50600101613d81565b613df98284613d69565b51602060f891821c019060ff8211613e26579060019392911b16851a613e1f8285613d69565b5390613de6565b6024877f4e487b710000000000000000000000000000000000000000000000000000000081526011600452fd5b507f5a0000000000000000000000000000000000000000000000000000000000000081613e808486613d69565b51161115613de1565b509150565b15613e9557565b60846040517f08c379a0000000000000000000000000000000000000000000000000000000008152602060048201526024808201527f4b4149413a3a4272696467653a2042726964676520686173206265656e20706160448201527f75736564000000000000000000000000000000000000000000000000000000006064820152fd5b3567ffffffffffffffff81168103610b985790565b9035907fffffffffffffffffffffffffffffffffffffffffffffffffffffffffffffffe181360301821215610b98570180359067ffffffffffffffff8211610b9857602001918136038313610b9857565b818110613f89575050565b60008155600101613f7e565b9190601f8111613fa457505050565b613fd0926000526020600020906020601f840160051c83019310613fd2575b601f0160051c0190613f7e565b565b9091508190613fc3565b3573ffffffffffffffffffffffffffffffffffffffff81168103610b985790565b67ffffffffffffffff8091169081146140165760010190565b7f4e487b7100000000000000000000000000000000000000000000000000000000600052601160045260246000fd5b1561404c57565b60846040517f08c379a000000000000000000000000000000000000000000000000000000000815260206004820152603660248201527f4b4149413a3a4272696467653a204e6f2070726f7669736f6e656420666f722060448201527f636f72726573706f6e64696e672073657175656e6365000000000000000000006064820152fd5b9190820391821161401657565b156140e457565b60a46040517f08c379a000000000000000000000000000000000000000000000000000000000815260206004820152604e60248201527f4b4149413a3a4272696467653a20412070726f766973696f6e20636f7272657360448201527f706f6e64696e672074686520676976656e2073657175656e636520776173206160648201527f6c726561647920636c61696d65640000000000000000000000000000000000006084820152fd5b1561419557565b60846040517f08c379a000000000000000000000000000000000000000000000000000000000815260206004820152603260248201527f4b4149413a3a4272696467653a2054696d654c6f636b206475726174696f6e2060448201527f6973206e6f7420706173736564206f76657200000000000000000000000000006064820152fd5b61422281614c24565b91600180841280156143ed575b61438f5761423d848461500d565b926001850160018112600080971290801582169115161761430357906142659181519161516d565b9080614271835161469a565b9286915b614330575b50505080517ffffffffffffffffffffffffffffffffffffffffffffffffffffffffffffffffa90818101908111614303576142b5908361500d565b9482519182019182116142d65750906142d09181519161516d565b91929190565b807f4e487b7100000000000000000000000000000000000000000000000000000000602492526011600452fd5b6024867f4e487b710000000000000000000000000000000000000000000000000000000081526011600452fd5b805182101561438a578280927fff000000000000000000000000000000000000000000000000000000000000006143728161436b8487613d69565b5116614b48565b60f81b16891a6143828288613d69565b530191614275565b61427a565b60646040517f08c379a000000000000000000000000000000000000000000000000000000000815260206004820152601760248201527f696e76616c696420736570617261746f7220696e6465780000000000000000006044820152fd5b506007840160078112600086129080158216911516176140165783511261422f565b60088151106145555761443381614427600193614219565b81839693959295615389565b03614499575b50507f90430203e2d9ce04f00738d355173358b054545ecb52218de9c6fb01cbd9aeaf906040516144876020828161447a8183019687815193849201613971565b81010380845201826138a1565b5190200361449457600190565b600090565b80517ffffffffffffffffffffffffffffffffffffffffffffffffffffffffffffffffa810190811161401657816144d5916144dc93519161516d565b9183614722565b602081519101209060208151910120036144f7573880614439565b60646040517f08c379a000000000000000000000000000000000000000000000000000000000815260206004820152601060248201527f496e76616c696420636865636b73756d000000000000000000000000000000006044820152fd5b60646040517f08c379a000000000000000000000000000000000000000000000000000000000815260206004820152601c60248201527f696e76616c69642062656368333220737472696e67206c656e677468000000006044820152fd5b7f90430203e2d9ce04f00738d355173358b054545ecb52218de9c6fb01cbd9aeaf916145de916145fc565b506040516144876020828161447a8183019687815193849201613971565b919060088351106145555760019261463091156146955761461c90614e0c565b61462581614219565b818395929793615389565b0361463a57509190565b8051907ffffffffffffffffffffffffffffffffffffffffffffffffffffffffffffffffa8201918211614016576146739181519161516d565b61467d8483614722565b602081519101209060208151910120036144f7579190565b61461c565b906146a4826138e2565b6146b160405191826138a1565b8281527fffffffffffffffffffffffffffffffffffffffffffffffffffffffffffffffe06146df82946138e2565b0190602036910137565b604051906146f682613885565b602082527f71707a7279397838676632747664773073336a6e35346b686365366d7561376c6020830152565b916040519261473084613869565b633b6a57b284526326508e6d6020850152631ea119fa6040850152606093633d4233dd6060820152608094632a1462b3608083015260019460005b84518110156147dc578660191c966147838287613d69565b5160fd1c633fffffe0600592831b16189760005b8281106147a95750505060010161476b565b60018083831c16146147be575b600101614797565b9860019063ffffffff6147d18c8a615378565b5116189990506147b6565b5090936019968660191c92633fffffe092836005998a1b169460005b8a8110614a6757505060005b875181101561487057858b1c9585601f61481e848c613d69565b5160f81c16918c1b16189560005b8b811061483d575050600101614804565b60018083831c1614614852575b60010161482c565b9660019063ffffffff6148658a8c615378565b51161897905061484a565b50919690955060005b86518110156148e257848a1c9484614891838a613d69565b5160f81c918b1b16189460005b8a81106148af575050600101614879565b60018083831c16146148c4575b60010161489e565b9560019063ffffffff6148d7898b615378565b5116189690506148bc565b5091929590979450606051156000146149ec57505060005b6006811061499d57505050506001905b186040519161491883613885565b600690600684526020368186013760005b828110614937575050505090565b80820390828211614016578183029183830403614016577fff00000000000000000000000000000000000000000000000000000000000000614987601f876001951c166149826146e9565b613d69565b511660001a6149968288613d69565b5301614929565b84861b821694841c60005b8781106149b95750506001016148fa565b60018083831c16146149ce575b6001016149a8565b9560019063ffffffff6149e18988615378565b5116189690506149c6565b93966000959291955b8651811015614a575783891c93838783015160f81c918a1b16189360005b898110614a245750506001016149f5565b60018083831c1614614a39575b600101614a13565b9460019063ffffffff614a4c888a615378565b511618959050614a31565b509650509150506001915061490a565b60018083831c1614614a7c575b6001016147f8565b9560019063ffffffff614a8f898b615378565b511618969050614a74565b67ffffffffffffffff81116138265760051b60200190565b8051821015613cd55760209160051b010190565b90604051614ad38161380a565b60606002829473ffffffffffffffffffffffffffffffffffffffff815467ffffffffffffffff8116865260401c166020850152604051614b1a81611a618160018601613a2a565b60408501520154910152565b600052600c6020526040600020548015159081614b41575090565b9050421190565b60005b614b536146e9565b51811015614ba0577fff0000000000000000000000000000000000000000000000000000000000000080614b89836149826146e9565b511690831614614b9b57600101614b4b565b905090565b60846040517f08c379a000000000000000000000000000000000000000000000000000000000815260206004820152602160248201527f4e6f7420666f756e642074686520636f72726573706f6e64696e6720696e646560448201527f78000000000000000000000000000000000000000000000000000000000000006064820152fd5b8051907fffffffffffffffffffffffffffffffffffffffffffffffffffffffffffffffff91828101908113600116614016575b6000811215614c6557505090565b7f31000000000000000000000000000000000000000000000000000000000000007fff00000000000000000000000000000000000000000000000000000000000000614cb18385613d69565b511614614d14577f80000000000000000000000000000000000000000000000000000000000000008114614ce6578201614c57565b602460007f4e487b710000000000000000000000000000000000000000000000000000000081526011600452fd5b91505090565b8051917fffffffffffffffffffffffffffffffffffffffffffffffffffffffffffffffff92838101908113600116614016575b6000811215614d5c5750505090565b7fff0000000000000000000000000000000000000000000000000000000000000080614d888386613d69565b511690831614614dc0577f80000000000000000000000000000000000000000000000000000000000000008114614ce6578301614d4d565b9250505090565b90614dd182614a9a565b614dde60405191826138a1565b8281527fffffffffffffffffffffffffffffffffffffffffffffffffffffffffffffffe06146df8294614a9a565b60009060009060005b8151811015614fcd57614e288183613d69565b5193602160f895861c108015614fb7575b614f59578015614f2a575b80948415614eee575b508381614ee6575b50614e6257600101614e15565b60846040517f08c379a000000000000000000000000000000000000000000000000000000000815260206004820152602960248201527f737472696e67206e6f7420616c6c206c6f77657263617365206f7220616c6c2060448201527f75707065726361736500000000000000000000000000000000000000000000006064820152fd5b905038614e55565b9093506041614efd8385613d69565b51821c10159081614f11575b509238614e4d565b605a9150614f1f8385613d69565b51901c111538614f09565b506061614f378284613d69565b51851c10158015614e445750607a614f4f8284613d69565b51851c1115614e44565b60646040517f08c379a000000000000000000000000000000000000000000000000000000000815260206004820152601760248201527f4e6f7420616c6c6f7765642041534349492076616c75650000000000000000006044820152fd5b50607e614fc48385613d69565b51861c11614e39565b509150614fd75790565b61396e90613d7a565b7fffffffffffffffffffffffffffffffffffffffffffffffffffffffffffffffff81146140165760010190565b9190801561510f578251811161508b576150268161469a565b9060008060005b83811061503d5750929450505050565b807fff0000000000000000000000000000000000000000000000000000000000000061506b6001938a613d69565b51169361508461507a82614fe0565b95851a9188613d69565b530161502d565b60846040517f08c379a000000000000000000000000000000000000000000000000000000000815260206004820152602b60248201527f746f206d757374206265206c657373207468616e206f7220657175616c20736f60448201527f75726365206c656e6774680000000000000000000000000000000000000000006064820152fd5b60646040517f08c379a000000000000000000000000000000000000000000000000000000000815260206004820152601960248201527f66726f6d206d757374206265206c657373207468616e20746f000000000000006044820152fd5b92918181111561510f578351811161508b5761519161518c83836140d0565b61469a565b91600080915b8381106151a75750929450505050565b807fff000000000000000000000000000000000000000000000000000000000000006151d56001938a613d69565b5116936151e461507a82614fe0565b5301615197565b61520f8167ffffffffffffffff809116600052600f60205260406000205416151590565b15801561524b575b8015615231575b61522b5761396e90615665565b50600090565b5061524567ffffffffffffffff8216614b26565b1561521e565b5067ffffffffffffffff8116600052601060205260ff60406000205416615217565b3d15615298573d9061527e826138e2565b9161528c60405193846138a1565b82523d6000602084013e565b606090565b73ffffffffffffffffffffffffffffffffffffffff604082015116600080808080946060870151905a60011cf16152d261526d565b501561531a57506153127f177b6046feaa5ac9793d715b69a9056ccd504da33d2f1f5d5588dfa654ddfa1991604051918291602083526020830190613c46565b0390a1600190565b9067ffffffffffffffff80825116835260116020526040832061533d8154614fe0565b9055808251168352601160205260408320546009541061535c57505090565b8161536c82615374945116615a4a565b5051166159f8565b5090565b906005811015613cd55760051b0190565b9291909260405161539981613869565b633b6a57b281526326508e6d6020820152631ea119fa6040820152633d4233dd6060820152632a1462b3608082015260019360005b835181101561543f578560191c956153e68286613d69565b5160fd1c633fffffe0600592831b16189660005b82811061540c575050506001016153ce565b60018083831c1614615421575b6001016153fa565b9760019063ffffffff6154348b89615378565b511618989050615419565b50926019958560191c91633fffffe09182600598891b169360005b89811061563257505060005b86518110156154d257848a1c9484601f615480848b613d69565b5160f81c16918b1b16189460005b8a811061549f575050600101615466565b60018083831c16146154b4575b60010161548e565b9560019063ffffffff6154c7898b615378565b5116189690506154ac565b5094509460005b85518110156155425783891c93836154f18389613d69565b5160f81c918a1b16189360005b89811061550f5750506001016154d9565b60018083831c1614615524575b6001016154fe565b9460019063ffffffff615537888a615378565b51161895905061551c565b509693509094938051156000146155b6575060005b6006811061556757505050505090565b85851b821695841c60005b868110615583575050600101615557565b60018083831c1614615598575b600101615572565b9660019063ffffffff6155ab8a88615378565b511618979050615590565b929593949060005b84518110156156275782881c92826155d68388613d69565b5160f81c91891b16189260005b8881106155f45750506001016155be565b60018083831c1614615609575b6001016155e3565b9360019063ffffffff61561c8789615378565b511618949050615601565b505093505050915090565b60018083831c1614615647575b60010161545a565b9460019063ffffffff61565a888a615378565b51161895905061563f565b9067ffffffffffffffff809216600092818452600f60205260409060038286208351926156918461380a565b815416835283516156a981611a618160018601613a2a565b602084015273ffffffffffffffffffffffffffffffffffffffff600282015416848401520154606082019081526156de615823565b5147106157a0576156ee9061529d565b60017f9b779b17422d0df92223018b32b4d1fa46e071723d6817e2486d003becc55f005561571a575050565b8184526010602052832060017fffffffffffffffffffffffffffffffffffffffffffffffffffffffffffffff00825416179055600554600181018091116157735761576d929350600555611b7981615a4a565b50600190565b6024847f4e487b710000000000000000000000000000000000000000000000000000000081526011600452fd5b608482517f08c379a000000000000000000000000000000000000000000000000000000000815260206004820152603460248201527f4b4149413a3a506f6f6c3a20506f6f6c27732062616c616e6365206973206e6f60448201527f7420656e6f75676820746f207472616e736665720000000000000000000000006064820152fd5b7f9b779b17422d0df92223018b32b4d1fa46e071723d6817e2486d003becc55f0060028154146158535760029055565b60046040517f3ee5aeb5000000000000000000000000000000000000000000000000000000008152fd5b60ff7ff0c57e16840df040f15088dc2f81fe391c3923bec73e23a9662efc9c229c6a005460401c16156158ac57565b60046040517fd7e6bcf8000000000000000000000000000000000000000000000000000000008152fd5b601354811015613cd55760136000527f66de8ffda797e3de9c05e8fc57b3bf0ec28a930d40b0d285d93c06501cf6a0900190600090565b601554811015613cd55760156000527f55f448fdea98c4d29eb340757ef0a66cd03dbb9538908a6a81d96026b71ec4750190600090565b600081815260166020526040812054614b9b57601554680100000000000000008110156159cb5790826159b76159828460016040960160155561590d565b81939154907fffffffffffffffffffffffffffffffffffffffffffffffffffffffffffffffff9060031b92831b921b19161790565b905560155492815260166020522055600190565b6024827f4e487b710000000000000000000000000000000000000000000000000000000081526041600452fd5b600081815260146020526040812054614b9b57601354680100000000000000008110156159cb579082615a36615982846001604096016013556158d6565b905560135492815260146020522055600190565b6000818152601660205260408120549091908015615b6b577fffffffffffffffffffffffffffffffffffffffffffffffffffffffffffffffff90818101818111615b3e576015549083820191821161430357818103615b0a575b5050506015548015615add57810190615abc8261590d565b909182549160031b1b19169055601555815260166020526040812055600190565b6024847f4e487b710000000000000000000000000000000000000000000000000000000081526031600452fd5b615b28615b196159829361590d565b90549060031b1c92839261590d565b9055845260166020526040842055388080615aa4565b6024857f4e487b710000000000000000000000000000000000000000000000000000000081526011600452fd5b505090565b6000818152601460205260408120549091908015615b6b577fffffffffffffffffffffffffffffffffffffffffffffffffffffffffffffffff90818101818111615b3e576013549083820191821161430357818103615c03575b5050506013548015615add57810190615be2826158d6565b909182549160031b1b19169055601355815260146020526040812055600190565b615c21615c12615982936158d6565b90549060031b1c9283926158d6565b9055845260146020526040842055388080615bca565b90615c765750805115615c4c57805190602001fd5b60046040517f1425ea42000000000000000000000000000000000000000000000000000000008152fd5b81511580615cce575b615c87575090565b60249073ffffffffffffffffffffffffffffffffffffffff604051917f9996b315000000000000000000000000000000000000000000000000000000008352166004820152fd5b50803b15615c7f56fea26469706673582212207885c8901e1786a5bec95a13773dc111bb295961a196077957209522cd818db464736f6c63430008180033",
  "linkReferences": {},
  "deployedLinkReferences": {}
}